:100000000C94E3010C9414020C9414020C9414024A
:100010000C9414020C9414020C9414020C94140208
:100020000C9414020C9414020C9414020C941402F8
:100030000C9414020C9414020C9414020C941402E8
:100040000C9414020C9414020C9414020C941402D8
:100050000C9414020C9414020C9414020C949D073A
:100060000C9414020C9471080C9447080C9414021C
:100070000C9414020C9414020C9414020C941402A8
:100080000C9414020C9414020C9414020C94140298
:100090000C9414020C9414020C9414020C94140288
:1000A0000C9414020C9414020C9414020C94140278
:1000B0000C9414020C9414020C9414020C94140268
:1000C0000C9414020C9414020C9414020C94140258
:1000D0000C9414020C9414020C9411080C94E7076D
:1000E0000C9414020C9467020C946F020C9453024B
:1000F0000C9403040C94F5030C94E6050C9459023B
:100100000C9445040C943A020C94E1030C944202C2
:100110000C94A7080C946B020C94A5030C94740225
:100120000C9479020C9434020C9446020C945D02F7
:100130000C9475020C9449020C944F020C943E02EC
:100140000C94D2030C9461024E6F206D6F64656D48
:100150002064657465637465642E0D0A0041540D56
:100160000043616C6C696E6720696E7465726E61C4
:100170006C426567696E0D0A0041542B4353510D63
:100180000041542D4D5353544D0D0041542B5342B7
:100190004449580D0053424449582074696D656FB5
:1001A0007574210D0A0057616974696E6720666F66
:1001B00072204D5353544D2072657472792E2E2E39
:1001C0000D0A0057616974696E6720666F7220536B
:1001D000424449582072657472792E2E2E0D0A0001
:1001E000534244495820666174616C210D0A0053E2
:1001F000424449582073756363657373210D0A0087
:100200000D0A005342444958204D4F20636F6465E6
:100210003A200041542B53424457540D00696E74E8
:1002200065726E616C53656E64526563656976656F
:100230000D0A0000002100240027002A002D0030B4
:1002400000330001010000040107010A010000223F
:1002500000250028002B002E003100340002010090
:1002600000050108010B01506F776572696E672008
:100270006F6E206D6F64656D2E2E2E0D0A00506F0F
:10028000776572696E67206F6666206D6F64656D55
:100290002E2E2E0D0A000D0A003E3E20003C3C2072
:1002A000000D0A0057616974696E6720666F7220DD
:1002B000726573706F6E736520000000200023006C
:1002C000260029002C002F0032000001000003014D
:1002D00006010901050505050705080808080202C9
:1002E00002020A0A080804040404010101010101D0
:1002F00001010303030303030303040707070C0CB3
:100300000C0C0C0C0C0C0202020206060606060679
:1003100006060B0B0B0B0B0B0B0B0102102020081E
:100320000810204010204080020102010804020150
:1003300001020408102040808040201008040201BF
:100340008004020180402010080402010804020118
:10035000010204081020408001020408102040809F
:1003600000000A0B02090C0D0E080703040100002F
:10037000000000000000000000000000000000007D
:10038000000000000000000000000000121110003A
:10039000000000000000000000000000000000005D
:1003A00000000000000053424452494E4720616C57
:1003B000657274207365656E210D0A000D0A003E9A
:1003C0003E200000A70811241FBECFEFD1E2DEBF00
:1003D000CDBF00E00CBF23E0A2E9B2E001C01D9256
:1003E000A63FB207E1F712E0A0E0B2E0E6E5F1E2F5
:1003F00000E00BBF02C007900D92A239B107D9F7F8
:1004000011E0C3EED1E000E006C021970109802F82
:10041000FE010E94B80DC23ED10780E00807A9F78F
:100420000E943D090C94A9100C9400008150823167
:1004300008F05AC0E82FF0E08827EE5DFD4F8F4F9F
:100440000C94B80D4202460234023A023E02740293
:1004500049024F02530259025D02610267026B02B8
:1004600074026F0275027902809180008F77809309
:1004700080000895809180008F7DF9CF8091800069
:10048000877FF5CF84B58F7784BD089584B58F7D40
:10049000FBCF8091B0008F778093B000089580915A
:1004A000B0008F7DF9CF809190008F77809390007E
:1004B0000895809190008F7DF9CF80919000877F83
:1004C000F5CF8091A0008F778093A0000895809150
:1004D000A0008F7DF9CF8091A000877FF5CF80911C
:1004E00020018F77809320010895809120018F7DD6
:1004F000F9CF80912001877FF5CFCF93DF932091B3
:10050000E5033091E6032F3F320791F03327F901DD
:10051000E05AFC4F8491F901E65EFC4FD491F90159
:10052000EC52FD4FC491C1110EC081E08093E903EC
:1005300080E090E0892BB1F00E94000091E08927D3
:10054000DF91CF91089581110E941602EC2FF0E007
:10055000EE0FFF1FE654FD4FA591B491EC91ED23F2
:1005600021F3E6CF80E0ECCF1F93CF93DF93282FCA
:1005700030E0F901E05AFC4F8491F901E65EFC4F4E
:10058000D491F901EC52FD4FC491CC23A9F0162F60
:1005900081110E941602EC2FF0E0EE0FFF1FE35BCB
:1005A000FD4FA591B4918FB7F894EC91111108C04B
:1005B000D095DE23DC938FBFDF91CF911F910895FB
:1005C000DE2BF8CFCF93DF9390E0FC01E65EFC4F8B
:1005D00024918C529D4FFC0184918823D1F090E0AE
:1005E000880F991FFC01ED5CFD4FA591B491FC01B2
:1005F000E35BFD4FC591D49161110EC09FB7F89494
:100600008C91E22FE0958E238C932881E223E8835E
:100610009FBFDF91CF9108958FB7F894EC91E22BB3
:10062000EC938FBFF6CF3FB7F894809199029091E9
:100630009A02A0919B02B0919C0226B5A89B05C08E
:100640002F3F19F00196A11DB11D3FBFBA2FA92F51
:10065000982F8827BC01CD01620F711D811D911D4E
:1006600042E0660F771F881F991F4A95D1F70895BA
:100670008F929F92AF92BF92CF92DF92EF92FF92B2
:100680004B015C010E9413036B017C010E94130368
:100690006C197D098E099F09683E7340810591059B
:1006A000A8F321E0821A9108A108B10888EEC80ECB
:1006B00083E0D81EE11CF11C81149104A104B10453
:1006C00029F7FF90EF90DF90CF90BF90AF909F9071
:1006D0008F9008952FB7F8946091950270919602CB
:1006E00080919702909198022FBF08958F929F92C8
:1006F000AF92BF92CF92DF92EF92FF925C010E9485
:100700006A036B017C0128EE33E0D5010E94A20D43
:100710004B015C010E946A036C197D098E099F09D7
:10072000681579058A059B0570F40E947D0288236F
:1007300089F380E0FF90EF90DF90CF90BF90AF9073
:100740009F908F90089581E0F5CFAF92BF92CF92A6
:10075000DF92EF92FF920F931F93CF93DF936C0181
:100760007B018B01040F151FEB015E01AE18BF0862
:10077000C017D10759F06991D601ED91FC91019014
:10078000F081E02DC6011995892B79F7C501DF911C
:10079000CF911F910F91FF90EF90DF90CF90BF907E
:1007A000AF900895FC01538D448D252F30E0842FA8
:1007B00090E0821B930B541710F0CF960895019789
:1007C0000895FC01918D828D981761F0A28DAE0F76
:1007D000BF2FB11D5D968C91928D9F5F9F73928FFD
:1007E00090E008958FEF9FEF0895FC01918D828D29
:1007F000981731F0828DE80FF11D858D90E00895F6
:100800008FEF9FEF0895FC01918D228D892F90E04D
:10081000805C9F4F821B91098F73992708958AE30B
:1008200093E00E94030421E0892B09F420E0822F49
:1008300008958DE992E00E94030421E0892B09F4D8
:1008400020E0822F0895FC01A48DA80FB92FB11DBF
:10085000A35ABF4F2C91848D90E001968F739927F6
:10086000848FA689B7892C93A089B1898C918370D4
:1008700080648C93938D848D981306C00288F389CD
:10088000E02D80818F7D80830895EF92FF920F93FA
:100890001F93CF93DF93EC0181E0888F9B8D8C8D2C
:1008A00098131AC0E889F989808185FF15C09FB720
:1008B000F894EE89FF896083E889F98980818370E3
:1008C000806480839FBF81E090E0DF91CF911F9192
:1008D0000F91FF90EF900895F62E0B8D10E00F5FB3
:1008E0001F4F0F731127E02E8C8D8E110CC00FB689
:1008F00007FCFACFE889F989808185FFF5CFCE0121
:100900000E942304F1CFEB8DEC0FFD2FF11DE35A74
:10091000FF4FF0829FB7F8940B8FEA89FB898081A3
:100920008062CFCFCF93DF93EC01FE0164912196DB
:10093000662329F08DE992E00E944504F6CFDF910D
:10094000CF910895EF92FF920F931F93CF93DF9370
:100950007C01C42F662321F08FEB93E00E94920468
:10096000C7010E949204CC2321F08CEB93E00E94FB
:1009700092040091D7031091D803E701FE0164911E
:10098000662359F0D801ED91FC910190F081E02DA2
:10099000C80119952196892B89F7DF91CF911F9175
:1009A0000F91FF90EF9008958F929F92AF92BF9218
:1009B000FF920F931F93CF93DF93FF24F39404E1EF
:1009C00012E08091D7039091D803DC01ED91FC9166
:1009D0000084F185E02D1995181619060CF076C0E3
:1009E0008091F2039091F303019609F06FC080911A
:1009F000D7039091D803DC01ED91FC910284F3853B
:100A0000E02D1995B82EC82F082E000CDD0B682F8D
:100A10008DE992E00E944504E091EE03F091EF032E
:100A20008081882309F44DC0B8124BC0CF010196D4
:100A30009093EF038093EE03818181110FC0F092B8
:100A4000E90386EA93E00E9492041093F103009375
:100A5000F0031093EF030093EE03B3CF0E946A03F9
:100A60004B015C018091D7039091D803DC01ED919B
:100A7000FC910084F185E02D1995892B59F40E9491
:100A80006A03681979098A099B096A307105810529
:100A9000910540F38091D7039091D803DC01ED914B
:100AA000FC910084F185E02D1995892B09F089CFFF
:100AB0008091EE039091EF0301979093EF03809361
:100AC000EE03D093F303C093F2037BCFDF91CF917A
:100AD0001F910F91FF90BF90AF909F908F900895BE
:100AE000CF92DF92EF92FF920F931F93CF9391E0FB
:100AF00098279093E1032091E3033091E4032F3F83
:100B00003207D1F0C82F61E0822F0E94E202CC238D
:100B1000D9F087E692E00E94920461E08091E303BD
:100B20000E94B4020E946A036093EA037093EB038D
:100B30008093EC039093ED03CF911F910F91FF9061
:100B4000EF90DF90CF9008950E946A030091EA032E
:100B50001091EB032091EC033091ED03DC01CB010C
:100B6000801B910BA20BB30B803D27E09207A105E0
:100B7000B10570F400ED17E020E030E06801790184
:100B8000C81AD90AEA0AFB0AC701B6010E9438034B
:100B90008EE792E00E94920460E08091E303CF919F
:100BA0001F910F91FF90EF90DF90CF900C94B402C3
:100BB000CF93DF93EC016991662329F08DE992E0F0
:100BC0000E944504F8CFDF91CF910895CF93DF9332
:100BD000EC01888D8823B9F0AA89BB89E889F98955
:100BE0008C9185FD03C0808186FD0DC00FB607FC8A
:100BF000F7CF8C9185FFF2CF808185FFEDCFCE01BD
:100C00000E942304E9CFDF91CF91089580E090E026
:100C1000892B29F00E94190481110E94000080E0B4
:100C200090E0892B49F080E090E0892B29F00E9428
:100C3000000081110E94000080E090E0892B49F0C3
:100C400080E090E0892B29F00E94000081110E9431
:100C5000000080E090E0892B29F00E940F048111B0
:100C60000C94000008952F923F924F925F926F92E2
:100C70007F928F929F92AF92BF92CF92DF92EF922C
:100C8000FF920F931F93CF93DF9300D000D0CDB787
:100C9000DEB77C015B016A01190184EA92E00E94DF
:100CA0009204C1010E94D80581EA92E00E94920458
:100CB000E114F10431F0A50170E060E0C7010E9489
:100CC000CC0D92E0C114D10409F090E080E09D8346
:100CD0008E838DE992E00E9492040E946A032B01A8
:100CE0003C01912C812C10E000E00E946A039B01E2
:100CF000AC01241935094609570929833A834B83E6
:100D00005C83A091DB03B091DC0328EE33E00E940A
:100D1000A20D29813A814B815C812617370748074C
:100D2000590708F0B7C00E947D028111B3C00E942C
:100D3000D4048091EE039091EF032091F003309161
:100D4000F103821B930B21E030E04091F2035091BC
:100D5000F3034F3F5F4F11F430E020E0820F931F09
:100D60001816190614F60E94D4044091EE0350910F
:100D7000EF03E091F003F091F103E417F50750F56C
:100D80009F012F5F3F4F3093F1032093F003808149
:100D90004217530751F4E4E1F2E0F093F103E093DA
:100DA000F003F093EF03E093EE03082E000C990B91
:100DB000282FC114D10471F14D815E814115510577
:100DC000B9F04130510509F43FC082E090E09E83C4
:100DD0008D8320C08091F2039091F3038F3F980799
:100DE00039F32FEF3FEF3093F3032093F203DDCF7E
:100DF000F601E00FF11F808128131DC00F5F1F4F08
:100E0000F601E00FF11F91E080E03081311190E0B8
:100E10009D838E83F101E80DF91D8081281331C077
:100E20005FEF851A950AF101E80DF91D80818111A6
:100E30007ECF81E030C091E080E0F6013081321356
:100E400090E0092F182FE6CFE114F10419F38D304B
:100E500071F0F2E0AF16B1047CF0F7018083F1E0AD
:100E6000AF1AB108A7014F5F5F4F7A01D3CFE2E01D
:100E7000F0E0FE83ED83CECF42E050E05E834D8311
:100E8000C9CF91E080E0F1013081321390E0892EEA
:100E9000982E4DCF80E026960FB6F894DEBF0FBE99
:100EA000CDBFDF91CF911F910F91FF90EF90DF9019
:100EB000CF90BF90AF909F908F907F906F905F90FA
:100EC0004F903F902F900895FB0101900020E9F78B
:100ED0003197AF01461B570BDC01ED91FC9102806D
:100EE000F381E02D1994CF93DF93BC018DE992E05B
:100EF0000E946407EC0164E672E08DE992E00E94D2
:100F000064078C0F9D1FDF91CF910895CF93DF93DE
:100F1000EC0189E992E00E949204CE010E94D8057A
:100F200086E992E00E949204BE018091D7039091DD
:100F3000D803DF91CF910C9464071F920F920FB6E4
:100F40000F9211242F933F938F939F93AF93BF934F
:100F50008091950290919602A0919702B09198028B
:100F60003091940223E0230F2D3758F50196A11DEF
:100F7000B11D209394028093950290939602A093C2
:100F80009702B09398028091990290919A02A09151
:100F90009B02B0919C020196A11DB11D8093990204
:100FA00090939A02A0939B02B0939C02BF91AF9141
:100FB0009F918F913F912F910F900FBE0F901F9097
:100FC000189526E8230F0296A11DB11DD2CF1F92BE
:100FD0000F920FB60F9211240BB60F922F933F93DF
:100FE0004F935F936F937F938F939F93AF93BF9331
:100FF000EF93FF938AE393E00E942304FF91EF9124
:10100000BF91AF919F918F917F916F915F914F9120
:101010003F912F910F900BBE0F900FBE0F901F901E
:1010200018951F920F920FB60F9211240BB60F92C4
:101030002F938F939F93EF93FF93E0914A03F09147
:101040004B038081E0915003F091510382FD1DC05C
:101050009081809153038F5F8F7320915403821787
:1010600041F0E0915303F0E0E65CFC4F958F8093F4
:101070005303FF91EF919F918F912F910F900BBE92
:101080000F900FBE0F901F9018958081F2CF1F9286
:101090000F920FB60F9211240BB60F922F933F931E
:1010A0004F935F936F937F938F939F93AF93BF9370
:1010B000EF93FF938DE992E00E942304FF91EF915B
:1010C000BF91AF919F918F917F916F915F914F9160
:1010D0003F912F910F900BBE0F900FBE0F901F905E
:1010E00018951F920F920FB60F9211240BB60F9204
:1010F0002F938F939F93EF93FF93E091AD02F09125
:10110000AE028081E091B302F091B40282FD1DC075
:1011100090818091B6028F5F8F732091B702821702
:1011200041F0E091B602F0E0E356FD4F958F8093D9
:10113000B602FF91EF919F918F912F910F900BBE6F
:101140000F900FBE0F901F9018958081F2CFAAE3E9
:10115000B3E013961C921E92129748EE53E060E0A3
:1011600070E014964D935D936D937C93179786E092
:1011700092E011969C938E9325E331E01D963C936B
:101180002E931C9724E331E01F963C932E931E97D9
:1011900020E331E051963C932E93509721E331E0C8
:1011A00053963C932E93529722E331E055963C930D
:1011B0002E93549726E331E057963C932E935697FF
:1011C00059961C9259975A961C925A975B961C9264
:1011D0005B975C961C925C97EDE9F2E013821282B9
:1011E00044835583668377839183808385EC90E085
:1011F0009587848784EC90E09787868780EC90E0E1
:10120000918B808B81EC90E0938B828B82EC90E0D1
:10121000958B848B86EC90E0978B868B118E128E4B
:10122000138E148EE7EDF3E0B183A0838EE190E09E
:10123000938382838AE090E0958384838CE291E0BB
:10124000978386838FEF9FEF9187808721E02287A6
:1012500013869587848797878687208B118A128AC1
:10126000138A148A158A168A24E132E0308F278B7C
:10127000328F218F948F838F0895CF93DF93CDB7D3
:10128000DEB7E8970FB6F894DEBF0FBECDBF7894F7
:1012900084B5826084BD84B5816084BD85B582607B
:1012A00085BD85B5816085BD80916E00816080932C
:1012B0006E00109281008091810082608093810095
:1012C00080918100816080938100809180008160A5
:1012D000809380008091B10084608093B100809100
:1012E000B00081608093B000809191008260809313
:1012F0009100809191008160809391008091900095
:101300008160809390008091A10082608093A10011
:101310008091A10081608093A1008091A0008160F4
:101320008093A000809121018260809321018091AF
:10133000210181608093210180912001816080934F
:10134000200180917A00846080937A0080917A00F5
:10135000826080937A0080917A00816080937A0025
:1013600080917A00806880937A001092C10082E1B7
:1013700090E09A83898383E090E09C838B8387E06D
:1013800090E09E838D8388E090E098878F8389E04A
:1013900090E09A8789878AE090E09C878B878BE032
:1013A00090E09E878D878DE090E0988B8F878CE012
:1013B00090E09A8B898B8E010F5F1F4F78016E0131
:1013C00023E1C20ED11C61E0D8018C910E94E2029F
:1013D0000E5F1F4F0C151D05B1F760E084E00E9401
:1013E000E20260E082E00E94E20260E083E10E94AB
:1013F000E202E091AD02F091AE0222E02083E091A2
:10140000A902F091AA021082E091AB02F091AC0225
:1014100080E180831092B502E091B102F091B202B6
:1014200096E09083E091AF02F091B00280818061FC
:101430008083E091AF02F091B00280818860808368
:10144000E091AF02F091B002808180688083E091EA
:10145000AF02F091B00280818F7D8083E0914A03DA
:10146000F0914B032083E0914603F09147031082F3
:10147000E0914803F091490387E68083109252037C
:10148000E0914E03F0914F039083E0914C03F09173
:101490004D03808180618083E0914C03F0914D0386
:1014A000808188608083E0914C03F0914D038081BE
:1014B00080688083E0914C03F0914D0380818F7DA3
:1014C000808361E086E00E94B4028AE090E090931D
:1014D000DC038093DB0384E190E09093DE03809350
:1014E000DD031E018FE2280E311C4E019DE2890EA4
:1014F000911C8091920290919302019688309105FF
:1015000004F590939302809392028091E2038111FB
:1015100010C081E08093E20381E691E00E94920492
:101520008091E103811136C01092E20380E00E94B5
:10153000700587E292E00E94730790E080E00E94CD
:10154000A91010929302109292028EE192E00E94F2
:10155000730764E670E080E090E00E9438038091B9
:10156000E20381110CC08091E3039091E4030196A2
:1015700031F08091E1031092E203882339F060ECAE
:1015800077E289E090E00E943803BFCF80E00E94BC
:101590007005F5CF81E00E9470050E946A032B015F
:1015A0003C010E946A036419750986099709643F22
:1015B00071408105910528F40E947D02882389F3FA
:1015C000B3CF0E946A032B013C010E946A03641995
:1015D0007509860997090E94410D20E030E048EC2A
:1015E00052E40E943C0D87FFAAC141E061E08DE515
:1015F00091E00E94A20422E632E050E040E070E078
:1016000060E090E080E00E943306182F0E947D0287
:1016100081118ACF1123C9F261E08CE00E94B402EB
:1016200060E08DE00E94B40281E08093E20380914B
:10163000E103811113C041E061E089E791E00E947C
:10164000A20422E632E048E452E062E070E0C70122
:101650000E943306811138C00E947D021092E2037D
:1016600061E08AE00E94B40260E08BE00E94B40274
:1016700061E088E00E94B4028091E20381110DC014
:1016800081E08093E2038DE192E00E9492048091D8
:10169000E103882341F11092E2038CE792E00E947B
:1016A000730760E088E00E94B40261E089E00E9474
:1016B000B40260E087E00E94B40264E670E080E07B
:1016C00090E00E94380315CF8981082E000C990BF9
:1016D000C0970A9718F6C7010E94AC0C90930102BC
:1016E00080930002BBCF41E061E083E192E00E9481
:1016F000A2042EE432E050E040E070E060E090E0D0
:1017000080E00E943306811103C00E947D02C3CF96
:1017100086E592E00E9486078BE592E00E948607AC
:101720002DE532E050E040E070E060E090E080E0E5
:101730000E943306882349F30E946A032B013C016F
:101740000E946A035B016C01A418B508C608D7089B
:10175000A091DD03B091DE0328EE33E00E94A20DDC
:10176000A616B706C806D90608F0E4C08091E703BC
:101770008823D9F041E061E081E891E00E94A20471
:1017800022E632E047E652E068E170E0C7010E94DD
:101790003306882309F4B9CF8981082E000C990BF0
:1017A0000E94C00D892B09F4BEC018AE1FAA1EAA44
:1017B0001DAA1CAA1BAA1AAA19AA18AA1FA61EA605
:1017C0001DA641E061E08BE891E00E94A20422E6C0
:1017D00032E040E752E060E270E0C7010E94330669
:1017E00081111EC00E947D0281119AC003E010E0A9
:1017F0001092E203012B09F050CF60E088E00E94D4
:10180000B40261E087E00E94B40260E089E00E94D7
:10181000B40287E090E0909393028093920269CEA5
:1018200087E390E08C0F9D1F9AA389A3A5E3B0E006
:10183000AC0FBD1FBCA3ABA3E3E3F0E0EC0FFD1FB7
:10184000FEA3EDA381E390E08C0F9D1F98A78FA3CB
:101850003AA629A69CA68BA66E0191E2C90ED11CC0
:1018600010E000E0C70169E772E00E94F10C009708
:1018700009F4BCCF0E94CA0CD601ED91FD916D0117
:10188000718360830F5F1F4F80E090E00630110589
:1018900051F783E092E00E949204CFA8D8ACDF9287
:1018A000CF92EFE8F2E0FF93EF93FF92EF920E9466
:1018B000D30DC7010E94D80580E092E00E949204F7
:1018C0000F900F900F900F900F900F9085E0C8161B
:1018D000D10468F48FEE91E00E9492048DA59EA53C
:1018E0009093E0038093DF0310E000E081CFC60116
:1018F0008D7F0C9721F0B0E1CB16D10429F480EE56
:1019000091E00E94920474CF83EC91E00E949204D3
:101910008091D9039091DA030E947603811110CF50
:1019200004E010E065CF86EA91E00E9492048AE02C
:1019300090E0F2CF85E991E00E949204ACCE88E479
:1019400091E00E94920461E08DE00E94B40260E0A8
:101950008CE00E94B402E8CDFC0188279927E89426
:1019600021912032E9F3293010F02E30C8F32B32C8
:1019700041F02D3239F4689404C00E94310D820F79
:10198000911D219120532A30C0F31EF4909581952A
:101990009F4F08951F93FC0199278827BC01E89465
:1019A00011911032E9F3193010F01E30C8F31B32D8
:1019B00051F01D3249F4689406C00E941C0D610F5D
:1019C000711D811D911D119110531A30B0F33EF419
:1019D00090958095709561957F4F8F4F9F4F1F9188
:1019E000089544EF53E00C94F50CFA01A191B081F5
:1019F000009719F41097E1F0CD01DC01CD010D90B5
:101A0000002011F4C00113C0FB012191222319F021
:101A10002015D9F7F3CFFB012191201519F41E925F
:101A2000119606C02223C1F70D900020A1F7D00126
:101A3000FA01A193B0830895592F482F372F262FED
:101A4000660F771F881F991F660F771F881F991FC2
:101A5000620F731F841F951F660F771F881F991FC2
:101A600008957AE0979F902D879F802D910D1124E6
:101A700008959927882708950E947E0D08F481E033
:101A80000895E89409C097FB3EF490958095709571
:101A900061957F4F8F4F9F4F9923A9F0F92F96E9BA
:101AA000BB279395F695879577956795B795F1112F
:101AB000F8CFFAF4BB0F11F460FF1BC06F5F7F4FCC
:101AC0008F4F9F4F16C0882311F096E911C07723DE
:101AD00021F09EE8872F762F05C0662371F096E8E7
:101AE000862F70E060E02AF09A95660F771F881FB6
:101AF000DAF7880F9695879597F90895990F00085A
:101B0000550FAA0BE0E8FEEF16161706E807F907CF
:101B1000C0F012161306E407F50798F0621B730B6A
:101B2000840B950B39F40A2661F0232B242B252BEB
:101B300021F408950A2609F4A140A6958FEF811D8E
:101B4000811D08950E94A90DB7FF0895821B930B74
:101B50000895A29FB001B39FC001A39F700D811D86
:101B60001124911DB29F700D811D1124911D0895A6
:101B7000EE0FFF1F881F8BBF0790F691E02D199481
:101B800091110C94390D80538A5028F0865C806244
:101B900081568650B0F70895DC0101C06D93415025
:101BA0005040E0F708950F931F93CF93DF93CDB785
:101BB000DEB72E970FB6F894DEBF0FBECDBF0E89ED
:101BC0001F8986E08C831A8309838FEF9FE79E83AA
:101BD0008D83AE01465E5F4F688D798DCE01019693
:101BE0000E94030E2F813885020F131FF801108207
:101BF0002E960FB6F894DEBF0FBECDBFDF91CF910A
:101C00001F910F9108952F923F924F925F926F9282
:101C10007F928F929F92AF92BF92CF92DF92EF927C
:101C2000FF920F931F93CF93DF9300D000D000D08B
:101C30001F921F92CDB7DEB77C013B018A01FC01E8
:101C400017821682838181FFDDC1CE0101965C017E
:101C5000F7019381F30193FD859193FF81913F01FA
:101C6000882309F453C1853239F493FD859193FF9C
:101C700081913F01853229F4B70190E00E941B1049
:101C8000E7CF912C212C312CFFE1F31538F08B326A
:101C900011F190F4803209F1833229F137FC3CC014
:101CA00020ED280F2A3050F536FE20C08AE0989E9D
:101CB000200D1124922E06C08D3291F0803371F7E1
:101CC000689430F8F30193FD859193FF81913F0172
:101CD0008111DACF21C0689431F8689432F8F2CFDC
:101CE000689433F8EFCF689434F8ECCFEAE02E9E96
:101CF000200D1124222E689435F8E4CF8E3229F479
:101D000036FC04C1689436F8DDCF8C3619F468943B
:101D100037F8D8CF8836B1F2982F9F7D95549330FD
:101D2000E0F08336A1F18337C1F1833509F063C058
:101D30002801F2E04F0E511CF801C080D180692DBE
:101D400070E036FC02C06FEF7FEFC6010E94051005
:101D50004C01689437F882010AC00C5F1F4FFFE303
:101D6000F98388248394912C6501E89437F833FE35
:101D70002DC0522C8114910471F5552009F468CFBF
:101D8000B70180E290E00E941B105A94F6CFF80150
:101D9000808189830E5F1F4FE4CF2801F2E04F0E50
:101DA000511CF801C080D180692D70E036FC02C062
:101DB0006FEF7FEFC6010E9410104C018201D5CF5A
:101DC000B70180E290E00E941B102A9428141904A5
:101DD00009F0B0F7CECFF60137FC859137FE81913F
:101DE0006F01B70190E00E941B1051105A94F1E06E
:101DF0008F1A9108BFCF843619F0893609F077C061
:101E0000F80137FE6BC060817181828193810C5F24
:101E10001F4FF32DFF763F2E97FF09C090958095B9
:101E2000709561957F4F8F4F9F4F689437F82AE0E8
:101E300030E0A5010E944B10C82ECA188C2C432CF0
:101E400036FE0CC0E89440F8C91440F434FE05C0D6
:101E500032FC03C0F32DFE7E4F2E892C44FEAAC017
:101E6000FE01EC0DF11D8081803309F09CC0242D12
:101E7000297E422E842D8870582E43FCAAC040FE35
:101E8000A4C09C2C821418F42C0C922C981844FE9C
:101E9000A6C0B70180E390E00E941B1042FE09C07B
:101EA00088E790E041FE02C088E590E0B7010E941B
:101EB0001B10C91408F49FC0CA94D12C9FEFC91AF3
:101EC000D90ACA0CDB1CF60182916F01B70190E0C0
:101ED0000E941B10AC14BD04B1F74FCF608171811B
:101EE000072E000C880B990B0E5F1F4F92CFD32C3F
:101EF000E894D4F82AE030E08537E1F1232D297FFA
:101F0000D22E8F36A9F1F0F4883551F1F701868190
:101F100097812B960FB6F894DEBF0FBECDBFDF9131
:101F2000CF911F910F91FF90EF90DF90CF90BF90D6
:101F3000AF909F908F907F906F905F904F903F9069
:101F40002F900895803749F0883701F7D4FE02C0FA
:101F50006894D2F820E130E00DC06894D4F8F6CF50
:101F600034FE03C0822F8660D82E20E132E002C00A
:101F700028E030E0F801D7FE0FC0608171818281D6
:101F800093810C5F1F4FA5010E944B10C82ECA18E9
:101F90003D2CE89437F852CF6081718190E080E069
:101FA0000E5F1F4FF0CF42FC02C0839463CF839437
:101FB000839460CF842D867809F45CCFF6CFB70187
:101FC00080E290E00E941B1083948214C0F3512C95
:101FD0005ECF522C5818821408F459CFF8CF842DB4
:101FE000867809F466CF8BE241FE80E247FC8DE201
:101FF000B70190E05CCFB70180E390E00E941B1036
:102000009A9457CF8FEF9FEF84CFFC0105906150DA
:1020100070400110D8F7809590958E0F9F1F0895FE
:10202000FC016150704001900110D8F780959095A7
:102030008E0F9F1F08950F931F93CF93DF93182F39
:10204000092FEB018B8181FD09C01FEF0FEF812F5D
:10205000902FDF91CF911F910F91089582FF14C0AF
:102060002E813F818C819D81281739073CF4E881BE
:10207000F981CF0101969983888310838E819F8196
:1020800001969F838E83E3CFE885F985812F19958B
:10209000892BA1F3DACFFA01AA27283051F1203198
:1020A00081F1E8946F936E7F6E5F7F4F8F4F9F4FEC
:1020B000AF4FB1E03ED0B4E03CD0670F781F891F2E
:1020C0009A1FA11D680F791F8A1F911DA11D6A0FFC
:1020D000711D811D911DA11D20D009F468943F91AF
:1020E0002AE0269F11243019305D3193DEF6CF01AE
:1020F0000895462F4770405D4193B3E00FD0C9F774
:10210000F6CF462F4F70405D4A3318F0495D31FDE0
:102110004052419302D0A9F7EACFB4E0A695979533
:10212000879577956795BA95C9F700976105710509
:1021300008959B01AC010A2E069457954795379553
:102140002795BA95C9F7620F731F841F951FA01DAD
:062150000895F894FFCF92
:10215600FFFF000000004504A503D203E6050304C3
:10216600E103F50353424452494E470D0A00536CAE
:10217600656570696E6700436F756C646E277420C1
:10218600626567696E206D6F64656D206F7065723C
:102196006174696F6E732E002B4353513A0052459A
:1021A6004144590D0A0054657374000D00300D0A40
:1021B6000D0A4F4B0D0A002D4D5353544D3A200036
:1021C6002B53424449583A20002C200053656E6434
:1021D600206661696C65643A206572726F720025CB
:0221E600750082
:00000001FF
