:100000000C94FE010C942F020C942F020C942F02DE
:100010000C942F020C942F020C942F020C942F029C
:100020000C942F020C942F020C942F020C942F028C
:100030000C942F020C942F020C942F020C942F027C
:100040000C942F020C942F020C942F020C942F026C
:100050000C942F020C942F020C942F020C94C707BF
:100060000C942F020C949B080C9471080C942F0292
:100070000C942F020C942F020C942F020C942F023C
:100080000C942F020C942F020C942F020C942F022C
:100090000C942F020C942F020C942F020C942F021C
:1000A0000C942F020C942F020C942F020C942F020C
:1000B0000C942F020C942F020C942F020C942F02FC
:1000C0000C942F020C942F020C942F020C942F02EC
:1000D0000C942F020C942F020C943B080C941108E2
:1000E0000C942F020C9482020C948A020C946E02DF
:1000F0000C941E040C9410040C9474020C94600470
:100100000C9455020C94FC030C945D020C94D108E1
:100110000C9486020C94C0030C948F020C949402ED
:100120000C944F020C9461020C9499050C94780283
:100130000C9490020C9464020C946A020C94590280
:100140000C94ED030C947C024E6F206D6F64656D12
:100150002064657465637465642E0D0A0041540D56
:1001600000506F776572696E67206F6E206D6F64E7
:10017000656D2E2E2E0D0A0043616C6C696E672032
:10018000696E7465726E616C426567696E0D0A0016
:10019000506F776572696E67206F6666206D6F6459
:1001A000656D2E2E2E0D0A0041542B4353510D0028
:1001B00041542D4D5353544D0D0041542B53424443
:1001C00049580D005D005B6373756D3A005D005B1F
:1001D00042696E6172792073697A653A0041542BE5
:1001E00053424452420D0053424449582074696DB1
:1001F000656F7574210D0A0057616974696E672017
:10020000666F72204D5353544D2072657472792E6F
:100210002E2E0D0A0057616974696E6720666F7231
:100220002053424449582072657472792E2E2E0D47
:100230000A00534244495820666174616C210D0ADA
:1002400000496E636F6D696E67206D6573736167DA
:1002500065210D0A00534244495820737563636554
:100260007373210D0A000D0A005342444958204D72
:100270004F20636F64653A200041542B534244572A
:10028000540D00696E7465726E616C53656E6452D4
:100290006563656976650D0A00000021002400276A
:1002A000002A002D00300033000101000004010786
:1002B000010A0100002200250028002B002E003139
:1002C00000340002010000050108010B010D0A00C5
:1002D0003E3E20003C3C20000D0A005761697469D5
:1002E0006E6720666F7220726573706F6E73652023
:1002F00000000020002300260029002C002F0032DF
:1003000000000100000301060109010505050507BC
:100310000508080808020202020A0A080804040480
:1003200004010101010101010103030303030303AC
:1003300003040707070C0C0C0C0C0C0C0C0202023B
:100340000206060606060606060B0B0B0B0B0B0B2E
:100350000B010210202008081020401020408002CD
:1003600001020108040201010204081020408080FB
:10037000402010080402018004020180402010087F
:100380000402010804020101020408102040800157
:100390000204081020408000000A0B02090C0D0E18
:1003A0000807030401000000000000000000000036
:1003B000000000000000000000000000000000003D
:1003C00000000012111000000000000000000000FA
:1003D0000000000000000000000000000053424444
:1003E00052494E4720616C657274207365656E21B9
:1003F0000D0A000D0A003E3E2000D10811241FBE48
:10040000CFEFD1E2DEBFCDBF00E00CBF24E0A2E918
:10041000B3E001C01D92A43FB207E1F713E0A0E0F2
:10042000B2E0EEEAF5E200E00BBF02C007900D92E9
:10043000A239B107D9F711E0CEEFD1E000E006C054
:1004400021970109802FFE010E94DB0FCD3FD107CC
:1004500080E00807A9F70E9467090C94D5120C9454
:1004600000008150823108F05AC0E82FF0E0882760
:10047000E35CFD4F8F4F0C94DB0F5D0261024F0276
:10048000550259028F0264026A026E0274027802F7
:100490007C02820286028F028A029002940280917C
:1004A00080008F77809380000895809180008F7DF9
:1004B000F9CF80918000877FF5CF84B58F7784BD99
:1004C000089584B58F7DFBCF8091B0008F778093A6
:1004D000B00008958091B0008F7DF9CF8091900099
:1004E0008F77809390000895809190008F7DF9CF51
:1004F00080919000877FF5CF8091A0008F778093C7
:10050000A00008958091A0008F7DF9CF8091A00078
:10051000877FF5CF809120018F7780932001089508
:10052000809120018F7DF9CF80912001877FF5CFC9
:10053000CF93DF932091E3043091E4042F3F3207FF
:1005400091F03327F901E956FC4F8491F901EF5AF4
:10055000FC4FD491F901E55FFC4FC491C1110EC06D
:1005600081E08093E70480E090E0892BB1F00E9465
:10057000000091E08927DF91CF91089581110E94B9
:100580003102EC2FF0E0EE0FFF1FEF50FD4FA59171
:10059000B491EC91ED2321F3E6CF80E0ECCF1F93F3
:1005A000CF93DF93282F30E0F901E956FC4F849177
:1005B000F901EF5AFC4FD491F901E55FFC4FC4916A
:1005C000CC23A9F0162F81110E943102EC2FF0E00C
:1005D000EE0FFF1FED54FD4FA591B4918FB7F89426
:1005E000EC91111108C0D095DE23DC938FBFDF9111
:1005F000CF911F910895DE2BF8CFCF93DF9390E03A
:10060000FC01EF5AFC4F2491855F9C4FFC018491C3
:100610008823D1F090E0880F991FFC01E756FD4F29
:10062000A591B491FC01ED54FD4FC591D491611198
:100630000EC09FB7F8948C91E22FE0958E238C9397
:100640002881E223E8839FBFDF91CF9108958FB780
:10065000F894EC91E22BEC938FBFF6CF3FB7F89470
:100660008091970390919803A0919903B0919A0378
:1006700026B5A89B05C02F3F19F00196A11DB11DFD
:100680003FBFBA2FA92F982F8827BC01CD01620F39
:10069000711D811D911D42E0660F771F881F991FF4
:1006A0004A95D1F708958F929F92AF92BF92CF92C1
:1006B000DF92EF92FF924B015C010E942E036B01CF
:1006C0007C010E942E036C197D098E099F09683EEA
:1006D000734081059105A8F321E0821A9108A108D1
:1006E000B10888EEC80E83E0D81EE11CF11C81140D
:1006F0009104A104B10429F7FF90EF90DF90CF900F
:10070000BF90AF909F908F9008952FB7F89460910D
:1007100093037091940380919503909196032FBF5A
:1007200008958F929F92AF92BF92CF92DF92EF92F5
:10073000FF925C010E9485036B017C0128EE33E08F
:10074000D5010E94C50F4B015C010E9485036C1905
:100750007D098E099F09681579058A059B0570F446
:100760000E949802882389F380E0FF90EF90DF9049
:10077000CF90BF90AF909F908F90089581E0F5CF7C
:10078000AF92BF92CF92DF92EF92FF920F931F939F
:10079000CF93DF936C017B018B01040F151FEB01DD
:1007A0005E01AE18BF08C017D10759F06991D60194
:1007B000ED91FC910190F081E02DC6011995892BF6
:1007C00079F7C501DF91CF911F910F91FF90EF90C5
:1007D000DF90CF90BF90AF900895FC01538D448D72
:1007E000252F30E0842F90E0821B930B541710F0DC
:1007F000CF96089501970895FC01918D828D9817E9
:1008000061F0A28DAE0FBF2FB11D5D968C91928DC0
:100810009F5F9F73928F90E008958FEF9FEF0895F1
:10082000FC01918D828D981731F0828DE80FF11DBA
:10083000858D90E008958FEF9FEF0895FC01918DD5
:10084000228D892F90E0805C9F4F821B91098F73CE
:100850009927089588E394E00E941E0421E0892BE3
:1008600009F420E0822F08958BE993E00E941E0492
:1008700021E0892B09F420E0822F0895FC01A48D4A
:10088000A80FB92FB11DA35ABF4F2C91848D90E0B2
:1008900001968F739927848FA689B7892C93A08995
:1008A000B1898C91837080648C93938D848D98131F
:1008B00006C00288F389E02D80818F7D80830895B2
:1008C000EF92FF920F931F93CF93DF93EC0181E0A0
:1008D000888F9B8D8C8D98131AC0E889F989808147
:1008E00085FF15C09FB7F894EE89FF896083E8897A
:1008F000F98980818370806480839FBF81E090E06C
:10090000DF91CF911F910F91FF90EF900895F62EF8
:100910000B8D10E00F5F1F4F0F731127E02E8C8D92
:100920008E110CC00FB607FCFACFE889F9898081D7
:1009300085FFF5CFCE010E943E04F1CFEB8DEC0F89
:10094000FD2FF11DE35AFF4FF0829FB7F8940B8FF4
:10095000EA89FB8980818062CFCFCF93DF93EC015E
:10096000FE0164912196662329F08BE993E00E94B1
:100970006004F6CFDF91CF910895EF92FF920F932D
:100980001F93CF93DF937C01C42F662321F086EF62
:1009900093E00E94AD04C7010E94AD04CC2321F076
:1009A00083EF93E00E94AD040091D5041091D6042A
:1009B000E701FE016491662359F0D801ED91FC91A5
:1009C0000190F081E02DC80119952196892B89F7B6
:1009D000DF91CF911F910F91FF90EF9008958F922B
:1009E0009F92AF92BF92FF920F931F93CF93DF938B
:1009F000FF24F3940CED12E08091D5049091D6047D
:100A0000DC01ED91FC910084F185E02D199518161B
:100A100019060CF076C08091F0049091F1040196D3
:100A200009F06FC08091D5049091D604DC01ED915E
:100A3000FC910284F385E02D1995B82EC82F082E5D
:100A4000000CDD0B682F8BE993E00E946004E091BD
:100A5000EC04F091ED048081882309F44DC0B812B4
:100A60004BC0CF0101969093ED048093EC048181FB
:100A700081110FC0F092E7048DED93E00E94AD0468
:100A80001093EF040093EE041093ED040093EC0434
:100A9000B3CF0E9485034B015C018091D5049091F6
:100AA000D604DC01ED91FC910084F185E02D1995CF
:100AB000892B59F40E948503681979098A099B09D1
:100AC0006A3071058105910540F38091D5049091BC
:100AD000D604DC01ED91FC910084F185E02D19959F
:100AE000892B09F089CF8091EC049091ED04019756
:100AF0009093ED048093EC04D093F104C093F00440
:100B00007BCFDF91CF911F910F91FF90BF90AF905E
:100B10009F908F900895CF93DF93EC0169916623A6
:100B200029F08BE993E00E946004F8CFDF91CF9128
:100B30000895CF93DF93EC01888D8823B9F0AA89BB
:100B4000BB89E889F9898C9185FD03C0808186FD88
:100B50000DC00FB607FCF7CF8C9185FFF2CF8081D7
:100B600085FFEDCFCE010E943E04E9CFDF91CF910A
:100B7000089580E090E0892B29F00E9434048111CF
:100B80000E94000080E090E0892B49F080E090E036
:100B9000892B29F00E94000081110E94000080E052
:100BA00090E0892B49F080E090E0892B29F00E94A9
:100BB000000081110E94000080E090E0892B29F064
:100BC0000E942A0481110C94000008950F931F9332
:100BD000CF93DF9300D000D000D01F92CDB7DEB707
:100BE0009F938F9386EE92E09F938F938E010F5F7A
:100BF0001F4F1F930F930E94FF0FC8010E948B0588
:100C00000F900F900F900F900F900F902A960FB6A5
:100C1000F894DEBF0FBECDBFDF91CF911F910F9132
:100C200008952F923F924F925F926F927F928F9290
:100C30009F92AF92BF92CF92DF92EF92FF920F936B
:100C40001F93CF93DF9300D000D0CDB7DEB77C01E8
:100C50005B016A0119018BED92E00E94AD04C101B4
:100C60000E948B0588ED92E00E94AD04E114F1042E
:100C700031F0A50170E060E0C7010E94F80F92E03A
:100C8000C114D10409F090E080E09D838E8384ED4F
:100C900092E00E94AD040E9485032B013C01912C3F
:100CA000812C10E000E00E9485039B01AC01241917
:100CB00035094609570929833A834B835C83A09100
:100CC000D904B091DA0428EE33E00E94C50F2981DF
:100CD0003A814B815C81261737074807590708F08E
:100CE000B7C00E9498028111B3C00E94EF048091A6
:100CF000EC049091ED042091EE043091EF04821BFE
:100D0000930B21E030E04091F0045091F1044F3F0B
:100D10005F4F11F430E020E0820F931F1816190680
:100D200014F60E94EF044091EC045091ED04E09120
:100D3000EE04F091EF04E417F50750F59F012F5FE3
:100D40003F4F3093EF042093EE0480814217530706
:100D500051F4ECEDF2E0F093EF04E093EE04F09345
:100D6000ED04E093EC04082E000C990B282FC1141D
:100D7000D10471F14D815E8141155105B9F04130C9
:100D8000510509F43FC082E090E09E838D8320C02E
:100D90008091F0049091F1048F3F980739F32FEF81
:100DA0003FEF3093F1042093F004DDCFF601E00F24
:100DB000F11F808128131DC00F5F1F4FF601E00F48
:100DC000F11F91E080E03081311190E09D838E83AE
:100DD000F101E80DF91D8081281331C05FEF851AFC
:100DE000950AF101E80DF91D808181117ECF81E026
:100DF00030C091E080E0F6013081321390E0092F9D
:100E0000182FE6CFE114F10419F38D3071F0F2E000
:100E1000AF16B1047CF0F7018083F1E0AF1AB1089E
:100E2000A7014F5F5F4F7A01D3CFE2E0F0E0FE838E
:100E3000ED83CECF42E050E05E834D83C9CF91E099
:100E400080E0F1013081321390E0892E982E4DCF51
:100E500080E026960FB6F894DEBF0FBECDBFDF91BF
:100E6000CF911F910F91FF90EF90DF90CF90BF90A7
:100E7000AF909F908F907F906F905F904F903F903A
:100E80002F900895FB0101900020E9F73197AF0101
:100E9000461B570BDC01ED91FC910280F381E02DA4
:100EA00019948F929F92AF92BF92EF92FF920F93FD
:100EB0001F93CF93DF93CDB7DEB7A1970FB6F8940A
:100EC000DEBF0FBECDBF7C01FA01CB0119A22230DB
:100ED00008F42AE08E010F5D1F4F822E912CB12C59
:100EE000A12CBF01A50194010E94A30FF901CA0121
:100EF0006A300CF5605DD8016E938D01232B242B95
:100F0000252B79F790E080E0109721F0BD01C70113
:100F10000E944207A1960FB6F894DEBF0FBECDBF68
:100F2000DF91CF911F910F91FF90EF90BF90AF9005
:100F30009F908F900895695CDECFCF93DF93BC01C3
:100F40008BE993E00E944207EC0163E573E08BE9D3
:100F500093E00E9442078C0F9D1FDF91CF9108956F
:100F6000CF93DF93EC0180ED92E00E94AD04CE01BF
:100F70000E948B058DEC92E00E94AD04BE01809131
:100F8000D5049091D604DF91CF910C9442071F9223
:100F90000F920FB60F9211242F933F938F939F932D
:100FA000AF93BF938091930390919403A091950385
:100FB000B09196033091920323E0230F2D3758F51B
:100FC0000196A11DB11D20939203809393039093EA
:100FD0009403A0939503B093960380919703909107
:100FE0009803A0919903B0919A030196A11DB11D98
:100FF0008093970390939803A0939903B0939A03D7
:10100000BF91AF919F918F913F912F910F900FBE04
:101010000F901F90189526E8230F0296A11DB11D71
:10102000D2CF1F920F920FB60F9211240BB60F92D0
:101030002F933F934F935F936F937F938F939F93E0
:10104000AF93BF93EF93FF9388E394E00E943E0435
:10105000FF91EF91BF91AF919F918F917F916F9190
:101060005F914F913F912F910F900BBE0F900FBE4C
:101070000F901F9018951F920F920FB60F92112488
:101080000BB60F922F938F939F93EF93FF93E09163
:101090004804F09149048081E0914E04F0914F049E
:1010A00082FD1DC09081809151048F5F8F732091CC
:1010B0005204821741F0E0915104F0E0E85CFB4FEC
:1010C000958F80935104FF91EF919F918F912F9174
:1010D0000F900BBE0F900FBE0F901F901895808140
:1010E000F2CF1F920F920FB60F9211240BB60F92F0
:1010F0002F933F934F935F936F937F938F939F9320
:10110000AF93BF93EF93FF938BE993E00E943E046C
:10111000FF91EF91BF91AF919F918F917F916F91CF
:101120005F914F913F912F910F900BBE0F900FBE8B
:101130000F901F9018951F920F920FB60F921124C7
:101140000BB60F922F938F939F93EF93FF93E091A2
:10115000AB03F091AC038081E091B103F091B20355
:1011600082FD1DC090818091B4038F5F8F732091A9
:10117000B503821741F0E091B403F0E0E556FC4F6F
:10118000958F8093B403FF91EF919F918F912F9151
:101190000F900BBE0F900FBE0F901F90189580817F
:1011A000F2CFA8E3B4E013961C921E92129748EE79
:1011B00053E060E070E014964D935D936D937C93E3
:1011C00017978EEC92E011969C938E9325E331E075
:1011D0001D963C932E931C9724E331E01F963C937D
:1011E0002E931E9720E331E051963C932E93509717
:1011F00021E331E053963C932E93529722E331E062
:1012000055963C932E93549726E331E057963C93A2
:101210002E93569759961C9259975A961C925A9704
:101220005B961C925B975C961C925C97EBE9F3E0F3
:1012300013821282448355836683778391838083EC
:1012400085EC90E09587848784EC90E0978786878B
:1012500080EC90E0918B808B81EC90E0938B828B83
:1012600082EC90E0958B848B86EC90E0978B868B5C
:10127000118E128E138E148EE5EDF4E0B183A083EF
:101280008EE190E0938382838AE090E0958384836B
:101290008CE291E0978386838FEF9FEF9187808721
:1012A00021E0228713869587848797878687208BFE
:1012B000118A128A138A148A158A168A2CED32E052
:1012C000308F278B328F218F948F838F0895CF9308
:1012D000DF93CDB7DEB7C154D1090FB6F894DEBFA6
:1012E0000FBECDBF789484B5826084BD84B5816023
:1012F00084BD85B5826085BD85B5816085BD8091E1
:101300006E00816080936E00109281008091810058
:101310008260809381008091810081608093810050
:10132000809180008160809380008091B100846012
:101330008093B1008091B00081608093B000809173
:1013400091008260809391008091910081608093F0
:101350009100809190008160809390008091A10025
:1013600082608093A1008091A10081608093A100A0
:101370008091A00081608093A00080912101826013
:1013800080932101809121018160809321018091CE
:10139000200181608093200180917A008460809395
:1013A0007A0080917A00826080937A0080917A003E
:1013B000816080937A0080917A00806880937A00BF
:1013C0001092C10082E190E09A83898383E090E0EB
:1013D0009C838B8387E090E09E838D8388E090E000
:1013E00098878F8389E090E09A8789878AE090E0E8
:1013F0009C878B878BE090E09E878D878DE090E0C7
:10140000988B8F878CE090E09A8B898B8E010F5F91
:101410001F4FD02EC12E7E0123E1E20EF11C61E0B0
:10142000D8018C910E94FD020E5F1F4F0E151F0503
:10143000B1F760E084E00E94FD0260E082E00E947B
:10144000FD0260E083E10E94FD02E091AB03F091B8
:10145000AC0322E02083E091A703F091A80310825F
:10146000E091A903F091AA0380E180831092B30375
:10147000E091AF03F091B00396E09083E091AD036B
:10148000F091AE03808180618083E091AD03F091A3
:10149000AE03808188608083E091AD03F091AE035C
:1014A000808180688083E091AD03F091AE038081FC
:1014B0008F7D8083E0914804F09149042083E0917E
:1014C0004404F09145041082E0914604F0914704F1
:1014D00087E6808310925004E0914C04F0914D0413
:1014E0009083E0914A04F0914B0480818061808375
:1014F000E0914A04F0914B04808188608083E09100
:101500004A04F0914B04808180688083E0914A0412
:10151000F0914B0480818F7D808361E086E00E94A2
:10152000CF028AE090E09093DA048093D90484E1BA
:1015300090E09093DC048093DB048091E0048111BF
:1015400047C081E08093E00488E791E00E94AD0409
:101550008091DF04811144C01092E00481E0809307
:10156000DF048091E1049091E2048F3F980781F1BC
:1015700061E00E94FD020E9485030091E804109141
:10158000E9042091EA043091EB04DC01CB01801BDB
:10159000910BA20BB30B803D27E09207A105B1058B
:1015A00070F400ED17E020E030E068017901C81A1E
:1015B000D90AEA0AFB0AC701B6010E94530380E96F
:1015C00091E00E94AD0460E08091E1040E94CF02AE
:1015D00089EE92E00E949D0790E080E00E94D51283
:1015E0001092DF048091E1049091E2048F3F98070C
:1015F000B1F061E00E94FD0281E691E00E94AD043D
:1016000061E08091E1040E94CF020E948503609313
:10161000E8047093E9048093EA049093EB040E9439
:1016200085034B015C010E948503681979098A09C9
:101630009B09643F71408105910528F40E9498023E
:10164000882389F389CF0E9485034B015C010E94A6
:101650008503681979098A099B090E94420F20E0D5
:1016600030E048EC52E40E943D0F87FF69C341E03F
:1016700061E08DE591E00E94BD0421E533E050E09A
:1016800040E070E060E090E080E00E941106182FDA
:101690000E949802811160CF1123C9F261E08CE0B1
:1016A0000E94CF0260E08DE00E94CF0211E0109313
:1016B000E0048091DF04811114C041E061E088EA18
:1016C00091E00E94BD0421E533E04AE053E062E08E
:1016D00070E08D2D9C2D0E941106811117C00E9473
:1016E00098021092E00480E193E00E949D0761E07F
:1016F0008BE00E94CF0260E08AE00E94CF0260E6A9
:101700007AEE80E090E00E94530317CF8981082E83
:10171000000C990BC0970A9720F78D2D9C2D0E94E5
:10172000AD0E9093C9028093C8021092E004029714
:10173000D4F261E08AE00E94CF0260E08BE00E9478
:10174000CF0261E088E00E94CF028091E00488230C
:1017500089F08CE293E00E949D0760E088E00E949F
:10176000CF0261E089E00E94CF0260E087E00E9442
:10177000CF02E3CE1093E00483E892E00E94AD0430
:10178000E090DF04E9AEE110D0C241E061E089E71A
:1017900092E00E94BD042FE333E050E040E070E0AF
:1017A00060E090E080E00E94110681110BC00E9471
:1017B0009802882309F4A8C208EC10E044E0E42E63
:1017C000F12C38C287E493E00E94B00783E793E0EE
:1017D0000E94B0072CE433E050E040E070E060E0AD
:1017E00090E080E00E941106882309F30E9485039F
:1017F0002B013C010E9485034B015C018418950874
:10180000A608B708A091DB04B091DC0428EE33E011
:101810000E94C50F86169706A806B90608F07EC274
:101820008091E504882329F141E061E080EB91E0BB
:101830000E94BD0421E533E046E553E068E170E035
:101840008D2D9C2D0E94110681110AC00E949802C4
:1018500008EC10E08111B2CF53E0E52EF12CEAC183
:101860008981082E000C990B0E94E30F892B09F443
:101870004EC218AE1FAA1EAA1DAA1CAA1BAA1AAAEB
:1018800019AA18AA1FA61EA61DA641E061E08AEBB0
:1018900091E00E94BD0421E533E04FE553E060E2B2
:1018A00070E08D2D9C2D0E941106882309F47FCFB6
:1018B00027E330E02C0F3D1F3AA329A345E350E076
:1018C0004C0F5D1F5CA34BA383E390E08C0F9D1F27
:1018D0009EA38DA3A1E3B0E0AC0FBD1FB8A7AFA33B
:1018E000EFE2F0E0EC0FFD1FFAA7E9A77DE2E72E9B
:1018F000F12CEC0EFD1EFCA6EBA68E010F5D1F4F1A
:10190000F12CE12C8D2D9C2D68E673E00E94F20EE7
:10191000009709F4F9C10E94CB0ED801ED91FD9119
:101920008D0171836083BFEFEB1AFB0A80E090E0CA
:10193000E6E0EE16F10441F789E692E00E94AD047C
:101940000FA918ADC8010E94E60586E692E00E9444
:10195000AD040530110508F05FC185E592E00E94F5
:10196000AD048DA59EA59093DE048093DD048BA924
:101970009CA910E000E0019709F04BC181E492E0DE
:101980000E94AD0441E061E08DED91E00E94BD0454
:101990002BE633E050E040E070E060E090E080E073
:1019A0000E941106882E882309F401CF0E94850326
:1019B0002B013C010E9485037B018C01E418F50892
:1019C00006091709A091D904B091DA0428EE33E092
:1019D0000E94C50FE616F7060807190788F40E944B
:1019E00098028111E9CE8091D5049091D604DC0152
:1019F000ED91FC910084F185E02D19950297D4F2C8
:101A00008091D5049091D604DC01ED91FC91008485
:101A1000F185E02D199502970CF484C18091D504CD
:101A20009091D604DC01ED91FC910284F385E02DC8
:101A30001995182F8091D5049091D604DC01ED9171
:101A4000FC910284F385E02D19951BAF1AAEEAAC28
:101A5000FBACE80EF91E8FEC91E00E94AD04C701CB
:101A60000E94E6058DEC91E00E94AD0408EC10E0C8
:101A7000312C212C60E0A62E62E0B62E2E143F04FD
:101A800008F055C00E949802811198CE8091D5042B
:101A90009091D604DC01ED91FC910084F185E02D5C
:101AA0001995892BE1F08091D5049091D604DC0141
:101AB000ED91FC910284F385E02D1995BFEF2B1A6F
:101AC0003B0AA114B10459F00115110571F1F5019A
:101AD00080830150110995012F5F3F4F59010E94EA
:101AE00085039B01AC012419350946095709229643
:101AF0002CAF3DAF4EAF5FAF2297A091D904B0910C
:101B0000DA0428EE33E00E94C50F22962CAD3DADDD
:101B10004EAD5FAD2297261737074807590708F4DF
:101B2000ADCF27E0E22EF12C85C089AED8CF0E9440
:101B300085034B015C0184189508A608B708A0919D
:101B4000D904B091DA0428EE33E00E94C50F86165E
:101B50009706A806B90688F40E94980281112ECE35
:101B60008091D5049091D604DC01ED91FC91008424
:101B7000F185E02D19950297D4F28091D5049091CA
:101B8000D604DC01ED91FC910084F185E02D1995DE
:101B900002973CF28091D5049091D604DC01ED913E
:101BA000FC910284F385E02D1995B82E8091D5041F
:101BB0009091D604DC01ED91FC910284F385E02D37
:101BC00019958C0186EC91E00E94AD04BDAE1CAE6F
:101BD0008CAD9DAD800F911F0E94E60584EC91E0D5
:101BE0000E94AD0421E533E050E040E070E060E0A9
:101BF00090E080E00E941106811104C00E949802CA
:101C0000870128CEB9AD870138E0E32EF12CB11160
:101C100011C0F12CE12C0EC0C8018D7F0C9721F072
:101C20000031110509F063C082E392E00E94AD0427
:101C300008EC10E01092E004EF2809F08ACD60E093
:101C400088E00E94CF0261E087E00E94CF0260E05E
:101C500089E00E94CF0265E773E08BE993E00E9480
:101C60004207A80170E060E02AE08BE993E00E945F
:101C7000510763E573E08BE993E00E94420780E03F
:101C8000E82E82E0F82EC70180509240801791071D
:101C900008F051C0F701408150E070E060E020E1C1
:101CA0008BE993E00E945107D7018C9190E00E944C
:101CB000F10F892B91F06DE873E08BE993E00E94BE
:101CC0004207F70160818BE993E00E9460046FE8AE
:101CD00073E08BE993E00E94420769E673E08BE9C9
:101CE00093E00E944207FFEFEF1AFF0ACCCF85E195
:101CF00092E00E94AD048091D7049091D8040E9494
:101D00009103811177CD58CD08EC10E0A5CD88EF77
:101D100091E00E94AD048AE090E0F1CF87EE91E07F
:101D20000E94AD0408EC10E0FCCE08EC10E09AE054
:101D3000E92EF12C7FCF64EF71E080E090E0E3CCFE
:101D400088E491E00E94AD0461E08DE00E94CF0242
:101D500060E08CE00E94CF02FFCBFC01882799272E
:101D6000E89421912032E9F3293010F02E30C8F3A5
:101D70002B3241F02D3239F4689404C00E94320FA6
:101D8000820F911D219120532A30C0F31EF49095AB
:101D900081959F4F08951F93FC0199278827BC01C7
:101DA000E89411911032E9F3193010F01E30C8F3A5
:101DB0001B3251F01D3249F4689406C00E941D0F79
:101DC000610F711D811D911D119110531A30B0F3D7
:101DD0003EF490958095709561957F4F8F4F9F4F02
:101DE0001F91089542EF54E00C94F60EFA01A19170
:101DF000B081009719F41097E1F0CD01DC01CD011D
:101E00000D90002011F4C00113C0FB012191222389
:101E100019F02015D9F7F3CFFB012191201519F402
:101E20001E92119606C02223C1F70D900020A1F743
:101E3000D001FA01A193B0830895592F482F372F6D
:101E4000262F660F771F881F991F660F771F881F21
:101E5000991F620F731F841F951F660F771F881FBE
:101E6000991F08957AE0979F902D879F802D910D5F
:101E7000112408959927882708950E947F0F08F458
:101E800081E00895E89409C097FB3EF49095809511
:101E9000709561957F4F8F4F9F4F9923A9F0F92F30
:101EA00096E9BB279395F695879577956795B795AE
:101EB000F111F8CFFAF4BB0F11F460FF1BC06F5F94
:101EC0007F4F8F4F9F4F16C0882311F096E911C0A6
:101ED000772321F09EE8872F762F05C0662371F0C7
:101EE00096E8862F70E060E02AF09A95660F771FDB
:101EF000881FDAF7880F9695879597F90895990FB7
:101F00000008550FAA0BE0E8FEEF16161706E807C3
:101F1000F907C0F012161306E407F50798F0621BE4
:101F2000730B840B950B39F40A2661F0232B242BB9
:101F3000252B21F408950A2609F4A140A6958FEFD8
:101F4000811D811D0895A1E21A2EAA1BBB1BFD0154
:101F50000DC0AA1FBB1FEE1FFF1FA217B307E40788
:101F6000F50720F0A21BB30BE40BF50B661F771FE0
:101F7000881F991F1A9469F76095709580959095C0
:101F80009B01AC01BD01CF0108950E94CC0FB7FFAA
:101F90000895821B930B0895A29FB001B39FC001C7
:101FA000A39F700D811D1124911DB29F700D811D85
:101FB0001124911D0895EE0FFF1F881F8BBF0790FE
:101FC000F691E02D199491110C943A0F80538A5098
:101FD00028F0865C806281568650B0F70895803282
:101FE00009F091110C943A0F80528F55D8F708954B
:101FF000DC0101C06D9341505040E0F708950F930C
:102000001F93CF93DF93CDB7DEB72E970FB6F8941B
:10201000DEBF0FBECDBF0E891F8986E08C831A8379
:1020200009838FEF9FE79E838D83AE01465E5F4FEE
:10203000688D798DCE0101960E942F102F813885F1
:10204000020F131FF80110822E960FB6F894DEBF10
:102050000FBECDBFDF91CF911F910F9108952F92A9
:102060003F924F925F926F927F928F929F92AF9228
:10207000BF92CF92DF92EF92FF920F931F93CF9375
:10208000DF9300D000D000D01F921F92CDB7DEB7F3
:102090007C013B018A01FC0117821682838181FF4A
:1020A000DDC1CE0101965C01F7019381F30193FD3F
:1020B000859193FF81913F01882309F453C18532B3
:1020C00039F493FD859193FF81913F01853229F485
:1020D000B70190E00E944712E7CF912C212C312CC0
:1020E000FFE1F31538F08B3211F190F4803209F1F1
:1020F000833229F137FC3CC020ED280F2A3050F5FF
:1021000036FE20C08AE0989E200D1124922E06C033
:102110008D3291F0803371F7689430F8F30193FDBC
:10212000859193FF81913F018111DACF21C068949D
:1021300031F8689432F8F2CF689433F8EFCF6894AE
:1021400034F8ECCFEAE02E9E200D1124222E689464
:1021500035F8E4CF8E3229F436FC04C1689436F8A1
:10216000DDCF8C3619F4689437F8D8CF8836B1F2C1
:10217000982F9F7D95549330E0F08336A1F18337FB
:10218000C1F1833509F063C02801F2E04F0E511C04
:10219000F801C080D180692D70E036FC02C06FEF7D
:1021A0007FEFC6010E9431124C01689437F882011A
:1021B0000AC00C5F1F4FFFE3F98388248394912C9E
:1021C0006501E89437F833FE2DC0522C8114910438
:1021D00071F5552009F468CFB70180E290E00E94C4
:1021E00047125A94F6CFF801808189830E5F1F4F02
:1021F000E4CF2801F2E04F0E511CF801C080D180DD
:10220000692D70E036FC02C06FEF7FEFC6010E94BF
:102210003C124C018201D5CFB70180E290E00E94D0
:1022200047122A942814190409F0B0F7CECFF6010A
:1022300037FC859137FE81916F01B70190E00E94D4
:10224000471251105A94F1E08F1A9108BFCF84368B
:1022500019F0893609F077C0F80137FE6BC060814C
:102260007181828193810C5F1F4FF32DFF763F2E8A
:1022700097FF09C090958095709561957F4F8F4F1E
:102280009F4F689437F82AE030E0A5010E9477124A
:10229000C82ECA188C2C432C36FE0CC0E89440F88B
:1022A000C91440F434FE05C032FC03C0F32DFE7E99
:1022B0004F2E892C44FEAAC0FE01EC0DF11D808139
:1022C000803309F09CC0242D297E422E842D8870F5
:1022D000582E43FCAAC040FEA4C09C2C821418F4C3
:1022E0002C0C922C981844FEA6C0B70180E390E015
:1022F0000E94471242FE09C088E790E041FE02C0FA
:1023000088E590E0B7010E944712C91408F49FC005
:10231000CA94D12C9FEFC91AD90ACA0CDB1CF6014A
:1023200082916F01B70190E00E944712AC14BD0486
:10233000B1F74FCF60817181072E000C880B990B8C
:102340000E5F1F4F92CFD32CE894D4F82AE030E0F0
:102350008537E1F1232D297FD22E8F36A9F1F0F4B4
:10236000883551F1F701868197812B960FB6F89445
:10237000DEBF0FBECDBFDF91CF911F910F91FF90B8
:10238000EF90DF90CF90BF90AF909F908F907F9015
:102390006F905F904F903F902F900895803749F055
:1023A000883701F7D4FE02C06894D2F820E130E00B
:1023B0000DC06894D4F8F6CF34FE03C0822F866037
:1023C000D82E20E132E002C028E030E0F801D7FE4C
:1023D0000FC060817181828193810C5F1F4FA501C5
:1023E0000E947712C82ECA183D2CE89437F852CFB5
:1023F0006081718190E080E00E5F1F4FF0CF42FC62
:1024000002C0839463CF8394839460CF842D8678B5
:1024100009F45CCFF6CFB70180E290E00E9447124A
:1024200083948214C0F3512C5ECF522C581882141E
:1024300008F459CFF8CF842D867809F466CF8BE263
:1024400041FE80E247FC8DE2B70190E05CCFB7012E
:1024500080E390E00E9447129A9457CF8FEF9FEF4E
:1024600084CFFC010590615070400110D8F7809531
:1024700090958E0F9F1F0895FC0161507040019050
:102480000110D8F7809590958E0F9F1F08950F9398
:102490001F93CF93DF93182F092FEB018B8181FDC1
:1024A00009C01FEF0FEF812F902FDF91CF911F9168
:1024B0000F91089582FF14C02E813F818C819D81F0
:1024C000281739073CF4E881F981CF0101969983F7
:1024D000888310838E819F8101969F838E83E3CFB3
:1024E000E885F985812F1995892BA1F3DACFFA01B7
:1024F000AA27283051F1203181F1E8946F936E7F43
:102500006E5F7F4F8F4F9F4FAF4FB1E03ED0B4E033
:102510003CD0670F781F891F9A1FA11D680F791F74
:102520008A1F911DA11D6A0F711D811D911DA11D85
:1025300020D009F468943F912AE0269F1124301995
:10254000305D3193DEF6CF010895462F4770405D30
:102550004193B3E00FD0C9F7F6CF462F4F70405DDF
:102560004A3318F0495D31FD4052419302D0A9F73A
:10257000EACFB4E0A6959795879577956795BA9534
:10258000C9F700976105710508959B01AC010A2EFA
:1025900006945795479537952795BA95C9F7620FD1
:0E25A000731F841F951FA01D0895F894FFCF90
:1025AE000101020305080D15223759000000000035
:1025BE00000000000000000000000000000000000D
:1025CE0000000000000000000000000000000000FD
:1025DE0000000000000000000000000000000000ED
:1025EE0000000000000000000000000000000000DD
:1025FE0000000000000000000000000000000000CD
:10260E0000000000000000000000000000000000BC
:10261E0000000000000000000000000000000000AC
:10262E00000000000000000000000000000000009C
:10263E00000000000000000000000000000000008C
:10264E00000000000000000000000000000000007C
:10265E00000000000000000000000000000000006C
:10266E000000000000000000FFFF000000006004FA
:10267E00C003ED0399051E04FC031004534244529B
:10268E00494E470D0A00257500436F756C646E2721
:10269E007420626567696E206D6F64656D206F7062
:1026AE0065726174696F6E732E002B4353513A003D
:1026BE005369676E616C5175616C697479206661DE
:1026CE00696C65643A206572726F720053656E6450
:1026DE00206661696C65643A206572726F72005291
:1026EE00454144590D0A005465737400300D0A0DAE
:1026FE000A4F4B0D0A002D4D5353544D3A20002BCB
:10270E0053424449583A20002C200041542B534246
:10271E004452420D00496E626F756E64206275669A
:10272E006665722073697A65206973200028002916
:02273E00000099
:00000001FF
