:100000000C9465020C9496020C9496020C94960241
:100010000C9496020C9496020C9496020C94960200
:100020000C9496020C9496020C9496020C949602F0
:100030000C9496020C9496020C9496020C949602E0
:100040000C9496020C9496020C9496020C949602D0
:100050000C9496020C9496020C9496020C94320E18
:100060000C9496020C94060F0C94DC0E0C949602E1
:100070000C9496020C9496020C9496020C949602A0
:100080000C9496020C9496020C9496020C94960290
:100090000C9496020C9496020C9496020C94960280
:1000A0000C9496020C9496020C9496020C94960270
:1000B0000C9496020C9496020C9496020C94960260
:1000C0000C9496020C9496020C9496020C94960250
:1000D0000C9496020C9496020C94A60E0C947C0E32
:1000E0000C9496020C943C0F0C940E030C943C035D
:1000F0000C9421030C9417030C94FC020C9402033F
:100100000C9441030C9411030C9406030C94A90461
:100110000C9433030C942F030C94BD040C9429030A
:100120000C949A040C9437030C946D040C94CB0437
:100130000C9425030C941B030C940A030C940D05DA
:100140000C943D030C94AE0600407A10F35A00A0C4
:10015000724E18090010A5D4E80000E87648170090
:1001600000E40B54020000CA9A3B000000E1F505D0
:10017000000080969800000040420F000000A0861A
:1001800001000000102700000000E803000000004C
:100190006400000000000A000000000001000000F0
:1001A00000002C76D888DC674F0823DFC1DFAE590A
:1001B000E1B1B796E5E3E453C63AE651997696E89D
:1001C000E6C28426EB898C9B62ED407C6FFCEFBC21
:1001D0009C9F40F2BAA56FA5F490055A2AF75C934C
:1001E0006B6CF9676DC11BFCE0E40D47FEF520E682
:1001F000B500D0ED902E0300943577050080841E65
:10020000080000204E0A000000C80C333333330FBF
:10021000986E12831141EF8D2114893BE65516CF5C
:10022000FEE6DB18D1844B381BF77C1D901DA4BB68
:10023000E424203284725E228100C9F124ECA1E51D
:100240003D274E6F206D6F64656D20646574656336
:100250007465642E0D0A0041540D0043616C6C6995
:100260006E6720696E7465726E616C426567696E57
:100270000D0A0041542B4353510D0041542D4D5351
:1002800053544D0D0041542B53424449580D0053D3
:10029000424449582074696D656F7574210D0A00D8
:1002A00057616974696E6720666F72204D535354AD
:1002B0004D2072657472792E2E2E0D0A00576169D9
:1002C00074696E6720666F722053424449582072E9
:1002D000657472792E2E2E0D0A005342444958201F
:1002E000666174616C210D0A0053424449582073C1
:1002F000756363657373210D0A000D0A0053424450
:100300004958204D4F20636F64653A200041542BBB
:1003100053424457540D0041542B53424457543DCB
:100320000D00696E7465726E616C53656E64526522
:1003300063656976650D0A0000002100240027002E
:100340002A002D00300033000101000004010701E4
:100350000A0100002200250028002B002E00310099
:10036000340002010000050108010B01506F7765A0
:1003700072696E67206F6E206D6F64656D2E2E2E14
:100380000D0A00506F776572696E67206F66662090
:100390006D6F64656D2E2E2E0D0A000D0A003E3E17
:1003A00020003C3C20000D0A0057616974696E67AB
:1003B00020666F7220726573706F6E736520000027
:1003C000000A0B02090C0D0E0807030401000000CF
:1003D000000000000000000000000000000000001D
:1003E00000000000000000000000001211100000DA
:1003F00000000000000000000000000000000000FD
:10040000000000000053424452494E4720616C6591
:100410007274207365656E210D0A000D0A003E3E60
:100420002000000020002300260029002C002F00BF
:100430003200000100000301060109010505050560
:10044000070508080808020202020A0A080804044C
:10045000040401010101010101010303030303037A
:100460000303040707070C0C0C0C0C0C0C0C020209
:10047000020206060606060606060B0B0B0B0B0B06
:100480000B0B010210202008081020401020408093
:100490000201020108040201010204081020408048
:1004A00080402010080402018004020180402010D6
:1004B000080402010804020101020408102040801F
:1004C00001020408102040803C0F11241FBECFEF12
:1004D000D1E2DEBFCDBF00E00CBF24E0A8EBB2E06C
:1004E00001C01D92AB35B207E1F712E0A0E0B2E027
:1004F000ECEBF5E300E00BBF02C007900D92A83BC8
:10050000B107D9F712E0C5E6D2E000E006C02197B6
:100510000109802FFE010E945815C436D10780E0E2
:100520000807A9F70E948C100C94DC1A0C940000A8
:100530008F929F92AF92BF92CF92DF92EF92FF92F3
:10054000CF93DF93A091950330E081113A2F8091F2
:10055000960390E0880F991FAC014E5D5B4FC090F1
:100560009703D0909803E0909903F0909A0360E08D
:1005700070E0CB01FA01C591D49128812A2323137D
:100580000FC04B015C012FEF821A920AA20AB20A35
:100590006C157D058E059F0570F060E070E0CB0165
:1005A000DF91CF91FF90EF90DF90CF90BF90AF9011
:1005B0009F908F900895C501B401DCCF81508231A6
:1005C00008F05AC0E82FF0E08827E651FD4F8F4F22
:1005D0000C9458150A030E03FC02020306033C03A5
:1005E000110317031B032103250329032F033303DF
:1005F0003C0337033D034103809180008F77809354
:1006000080000895809180008F7DF9CF80918000D7
:10061000877FF5CF84B58F7784BD089584B58F7DAE
:10062000FBCF8091B0008F778093B00008958091C8
:10063000B0008F7DF9CF809190008F7780939000EC
:100640000895809190008F7DF9CF80919000877FF1
:10065000F5CF8091A0008F778093A00008958091BE
:10066000A0008F7DF9CF8091A000877FF5CF80918A
:1006700020018F77809320010895809120018F7D44
:10068000F9CF80912001877FF5CFCF93DF93209121
:100690004604309147042F3F320791F03327F90188
:1006A000E154FC4F8491F901EE57FB4FD491F901CD
:1006B000E45CFB4FC491C1110EC081E080934A04F9
:1006C00080E090E0892BB1F00E94000091E0892742
:1006D000DF91CF91089581110E94DE02EC2FF0E0AE
:1006E000EE0FFF1FEE5DFB4FA591B491EC91ED2352
:1006F00021F3E6CF80E0ECCF1F93CF93DF93282F39
:1007000030E0F901E154FC4F8491F901EE57FB4FC1
:10071000D491F901E45CFB4FC491CC23A9F0162FCE
:1007200081110E94DE02EC2FF0E0EE0FFF1FEE5A67
:10073000FC4FA591B4918FB7F894EC91111108C0BA
:10074000D095DE23DC938FBFDF91CF911F91089569
:10075000DE2BF8CFCF93DF9390E0FC01EE57FB4FF9
:100760002491845C9B4FFC0184918823D1F090E01C
:10077000880F991FFC01E85CFC4FA591B491FC0126
:10078000EE5AFC4FC591D49161110EC09FB7F894F9
:100790008C91E22FE0958E238C932881E223E883CD
:1007A0009FBFDF91CF9108958FB7F894EC91E22B22
:1007B000EC938FBFF6CF3FB7F8948091CB02909126
:1007C000CC02A091CD02B091CE0226B5A89B05C067
:1007D0002F3F19F00196A11DB11D3FBFBA2FA92FC0
:1007E000982F8827BC01CD01620F711D811D911DBD
:1007F00042E0660F771F881F991F4A95D1F7089529
:100800008F929F92AF92BF92CF92DF92EF92FF9220
:100810004B015C010E94DB036B017C010E94DB0346
:100820006C197D098E099F09683E73408105910509
:10083000A8F321E0821A9108A108B10888EEC80E39
:1008400083E0D81EE11CF11C81149104A104B104C1
:1008500029F7FF90EF90DF90CF90BF90AF909F90DF
:100860008F9008952FB7F8946091C7027091C802D5
:100870008091C9029091CA022FBF08958F929F92D2
:10088000AF92BF92CF92DF92EF92FF925C010E94F3
:1008900032046B017C0128EE33E0D5010E94421541
:1008A0004B015C010E9432046C197D098E099F097D
:1008B000681579058A059B0570F40E944503882315
:1008C00089F380E0FF90EF90DF90CF90BF90AF90E2
:1008D0009F908F90089581E0F5CFAF92BF92CF9215
:1008E000DF92EF92FF920F931F93CF93DF936C01F0
:1008F0007B018B01040F151FEB015E01AE18BF08D1
:10090000C017D10759F06991D601ED91FC91019082
:10091000F081E02DC6011995892B79F7C501DF918A
:10092000CF911F910F91FF90EF90DF90CF90BF90EC
:10093000AF900895FC01538D448D252F30E0842F16
:1009400090E0821B930B541710F0CF9608950197F7
:100950000895FC01918D828D981761F0A28DAE0FE4
:10096000BF2FB11D5D968C91928D9F5F9F73928F6B
:1009700090E008958FEF9FEF0895FC01918D828D97
:10098000981731F0828DE80FF11D858D90E0089564
:100990008FEF9FEF0895FC01918D228D892F90E0BC
:1009A000805C9F4F821B91098F73992708958BE973
:1009B00093E00E94CB0421E0892B09F420E0822FF0
:1009C00008958FEC92E00E94CB0421E0892B09F47A
:1009D00020E0822F0895FC01A48DA80FB92FB11D2E
:1009E000A35ABF4F2C91848D90E001968F73992765
:1009F000848FA689B7892C93A089B1898C91837043
:100A000080648C93938D848D981306C00288F3893B
:100A1000E02D80818F7D80830895EF92FF920F9368
:100A20001F93CF93DF93EC0181E0888F9B8D8C8D9A
:100A300098131AC0E889F989808185FF15C09FB78E
:100A4000F894EE89FF896083E889F9898081837051
:100A5000806480839FBF81E090E0DF91CF911F9100
:100A60000F91FF90EF900895F62E0B8D10E00F5F21
:100A70001F4F0F731127E02E8C8D8E110CC00FB6F7
:100A800007FCFACFE889F989808185FFF5CFCE018F
:100A90000E94EB04F1CFEB8DEC0FFD2FF11DE35A1B
:100AA000FF4FF0829FB7F8940B8FEA89FB89808112
:100AB0008062CFCFCF93DF93EC01FE01649121964A
:100AC000662329F08FEC92E00E940D05F6CFDF91AE
:100AD000CF910895EF92FF920F931F93CF93DF93DF
:100AE0007C01C42F662321F08EE194E00E945A0518
:100AF000C7010E945A05CC2321F08BE194E00E94AB
:100B00005A050091380410913904E701FE016491FF
:100B1000662359F0D801ED91FC910190F081E02D10
:100B2000C80119952196892B89F7DF91CF911F91E3
:100B30000F91FF90EF9008958F929F92AF92BF9286
:100B4000FF920F931F93CF93DF93FF24F3940AE157
:100B500012E08091380490913904DC01ED91FC9110
:100B60000084F185E02D1995181619060CF076C051
:100B70008091530490915404019609F06FC08091C4
:100B8000380490913904DC01ED91FC910284F385E5
:100B9000E02D1995B82EC82F082E000CDD0B682FFC
:100BA0008FEC92E00E940D05E0914F04F09150040B
:100BB0008081882309F44DC0B8124BC0CF01019643
:100BC0009093500480934F04818181110FC0F09263
:100BD0004A0485E094E00E945A0510935204009361
:100BE00051041093500400934F04B3CF0E94320479
:100BF0004B015C018091380490913904DC01ED9146
:100C0000FC910084F185E02D1995892B59F40E94FF
:100C10003204681979098A099B096A3071058105CE
:100C2000910540F38091380490913904DC01ED91F5
:100C3000FC910084F185E02D1995892B09F089CF6D
:100C400080914F04909150040197909350048093A9
:100C50004F04D0935404C09353047BCFDF91CF91C2
:100C60001F910F91FF90BF90AF909F908F9008952C
:100C7000CF92DF92EF92FF920F931F93CF9391E069
:100C800098279093420420914404309145042F3FCB
:100C90003207D1F0C82F61E0822F0E94AA03CC2333
:100CA000D9F08CE693E00E945A0561E080914404FB
:100CB0000E947C030E94320460934B0470934C04A6
:100CC00080934D0490934E04CF911F910F91FF900C
:100CD000EF90DF90CF9008950E94320400914B0472
:100CE00010914C0420914D0430914E04DC01CB0155
:100CF000801B910BA20BB30B803D27E09207A1054F
:100D0000B10570F400ED17E020E030E068017901F2
:100D1000C81AD90AEA0AFB0AC701B6010E940004F0
:100D200083E893E00E945A0560E080914404CF91EB
:100D30001F910F91FF90EF90DF90CF900C947C0368
:100D4000CF93DF93EC016991662329F08FEC92E059
:100D50000E940D05F8CFDF91CF910895CF93DF93D7
:100D6000EC01888D8823B9F0AA89BB89E889F989C3
:100D70008C9185FD03C0808186FD0DC00FB607FCF8
:100D8000F7CF8C9185FFF2CF808185FFEDCFCE012B
:100D90000E94EB04E9CFDF91CF91089580E090E0CD
:100DA000892B29F00E94E10481110E94000080E05B
:100DB00090E0892B49F080E090E0892B29F00E9497
:100DC000000081110E94000080E090E0892B49F032
:100DD00080E090E0892B29F00E94000081110E94A0
:100DE000000080E090E0892B29F00E94D704811157
:100DF0000C94000008952F923F924F925F926F9251
:100E00007F928F929F92AF92BF92CF92DF92EF929A
:100E1000FF920F931F93CF93DF9300D000D0CDB7F5
:100E2000DEB77C015B016A01190189EA93E00E9447
:100E30005A05C1010E94A00686EA93E00E945A0565
:100E4000E114F10431F0A50170E060E0C7010E94F7
:100E5000ED1792E0C114D10409F090E080E09D8389
:100E60008E8382EA93E00E945A050E9432042B018D
:100E70003C01912C812C10E000E00E9432049B0187
:100E8000AC01241935094609570929833A834B8354
:100E90005C83A0913C04B0913D0428EE33E00E94B5
:100EA000421529813A814B815C8126173707480713
:100EB000590708F0B7C00E9445038111B3C00E94D2
:100EC0009C0580914F0490915004209151043091E1
:100ED0005204821B930B21E030E040915304509167
:100EE00054044F3F5F4F11F430E020E0820F931F16
:100EF0001816190614F60E949C0540914F04509153
:100F00005004E0915104F0915204E417F50750F5B4
:100F10009F012F5F3F4F30935204209351048081F3
:100F20004217530751F4EAE1F2E0F0935204E093E0
:100F30005104F0935004E0934F04082E000C990BD9
:100F4000282FC114D10471F14D815E8141155105E5
:100F5000B9F04130510509F43FC082E090E09E8332
:100F60008D8320C080915304909154048F3F980743
:100F700039F32FEF3FEF3093540420935304DDCF28
:100F8000F601E00FF11F808128131DC00F5F1F4F76
:100F9000F601E00FF11F91E080E03081311190E027
:100FA0009D838E83F101E80DF91D8081281331C0E6
:100FB0005FEF851A950AF101E80DF91D8081811115
:100FC0007ECF81E030C091E080E0F60130813213C5
:100FD00090E0092F182FE6CFE114F10419F38D30BA
:100FE00071F0F2E0AF16B1047CF0F7018083F1E01C
:100FF000AF1AB108A7014F5F5F4F7A01D3CFE2E08C
:10100000F0E0FE83ED83CECF42E050E05E834D837F
:10101000C9CF91E080E0F1013081321390E0892E58
:10102000982E4DCF80E026960FB6F894DEBF0FBE07
:10103000CDBFDF91CF911F910F91FF90EF90DF9087
:10104000CF90BF90AF909F908F907F906F905F9068
:101050004F903F902F900895FB0101900020E9F7F9
:101060003197AF01461B570BDC01ED91FC910280DB
:10107000F381E02D1994CF93DF93BC018FEC92E0C4
:101080000E942C08EC0169E872E08FEC92E00E946B
:101090002C088C0F9D1FDF91CF910895CF93DF9384
:1010A000EC018EE993E00E945A05CE010E94A00651
:1010B0008BE993E00E945A05209749F0BE01809188
:1010C000380490913904DF91CF910C942C08DF9172
:1010D000CF9108950F931F93CF93DF93EC018881F5
:1010E0009981009759F02A813B812617370730F004
:1010F00081E0DF91CF911F910F9108958B016F5F78
:101100007F4F0E94F716009759F0998388831B83BD
:101110000A832C813D81232B59F7FC011082E8CFF3
:1011200080E0E7CFCF93DF93EC018881998100972E
:1011300011F00E946E16198218821D821C821B8279
:101140001A82DF91CF9108950F931F93CF93DF936E
:10115000EC010C811D81095F1F4FB8010E946A08D4
:10116000882391F0288139818C819D8164E272E02D
:10117000820F931F0E94FF171D830C83CE01DF9106
:10118000CF911F910F910895CE010E949208F6CF42
:10119000EF92FF920F931F93CF93DF93EC017B01AC
:1011A0008A01BA010E946A0881110BC0CE010E9417
:1011B0009208CE01DF91CF911F910F91FF90EF9098
:1011C00008951D830C83B701888199810E94FF17C0
:1011D000F0CFCF93DF93EC01FB018617970749F01F
:1011E000608171816115710541F0448155810E94D2
:1011F000C808CE01DF91CF9108950E949208F9CFDF
:10120000FC0180819181009711F00C946E16089575
:10121000CF93DF93CDB7DEB7C256D1400FB6F89467
:10122000DEBF0FBECDBF1E012FEB221A2EEF320AFA
:1012300064EF71E080E090E00E9400048091C402BD
:101240009091C5020196883091050CF044C09093AE
:10125000C5028093C40244E0B42E5BE9452E512CB4
:1012600063E2862E912C72E0A72E8091BC02811140
:101270000DC00E9432046093B8027093B90280934B
:10128000BA029093BB02F1E0F093BC020E943204D8
:101290000091B8021091B9022091BA023091BB02BC
:1012A000601771078207930769F080918803823085
:1012B00009F4A1C008F062C0882309F47CC0813021
:1012C00009F47DC061E087E10E947C0360E08AE16F
:1012D0000E947C03CACF1092C5021092C4028CE215
:1012E00092E00E943B0802E713E060E0D8018C9195
:1012F0000E947C030E5F1F4FB3E008381B07A9F75D
:1013000006E010E061E08DE00E947C036AEF70E08F
:1013100080E090E00E94000460E08DE00E947C0389
:101320006AEF70E080E090E00E9400040150110933
:1013300049F761E08DE00E947C0364E670E080E0A4
:1013400090E00E9400048091430481110CC08091C0
:10135000440490914504019631F08091420410922A
:101360004304882339F06EED72E289E090E00E9438
:10137000000471CF80E00E943806F5CF833009F475
:1013800066C0843009F09ECF0E9432040091890328
:1013900010918A0320918B0330918C03601B710B99
:1013A000820B930B613D77408105910508F48ACF4C
:1013B0001092880387CF21E02093880383CF61E0D8
:1013C000809193030E947C031092910310929003EA
:1013D00010928F0310928E0310928D030E9432049C
:1013E0006093890370938A0380938B0390938C039B
:1013F000A092880367CF0E94320400918903109164
:101400008A0320918B0330918C03601B710B820B3C
:10141000930B6B3F71058105910508F453CF61E093
:10142000809193030E94AA0360E0809193030E943D
:101430007C030E9432046093890370938A03809333
:101440008B0390938C0333E0309388033BCF0E944F
:1014500032040091890310918A0320918B0330910B
:101460008C03601B710B820B930B65317105810539
:10147000910508F427CF0E9432046093890370938A
:101480008A0380938B0390938C03B0928803F89423
:1014900061E0809193030E947C03C2010197F1F700
:1014A00060E0809193030E94AA03C4010197F1F7C1
:1014B00080E00E949802672B682B692B09F490C08A
:1014C00081E00E949802672B682B692B09F488C081
:1014D0008E010F5F1F4F7801380180E00E94980253
:1014E000D7016D937D938D939C93139781E00E9418
:1014F0009802F7016483758386839783F8E0EF0E83
:10150000F11C2E143F0449F7789490E080E0D80154
:10151000CD90DD90ED90FC90139714964D915D91D8
:101520006D917C911797C114D104E104F10409F481
:10153000C9CE411551056105710509F4C3CEFC0101
:1015400033E0F595E7953A95E1F7E857FC4F2581AB
:10155000220FC416D506E606F70608F43FC0258319
:101560000196085F1F4F8832910589F640918F03DD
:10157000642F70E08091900390E05091910320914E
:101580008D0330918E03230F3327331F260F371F10
:10159000280F391F33275217130609F093CE2091D5
:1015A00094032223F9F0233008F04AC0762F6627EF
:1015B00066277F77682B792B47FF03C0719561956C
:1015C0007109072E000C880B990B0E94921420E0E1
:1015D00030E040E251E40E9460150AC02160BFCFB4
:1015E000789470CE072E000C880B990B0E949214F1
:1015F0004B015C010E9432046093B8027093B902FF
:101600008093BA029093BB0261E08AE10E947C035E
:1016100060E087E10E947C03F10111821082138255
:10162000128215821482830122E044E0C501B401D4
:101630000E948C11009759F4C1010E94920813C0B6
:10164000812C912C90ECA92E9FE7B92ED3CFFC01D1
:1016500001900020E9F73197AF01481B590BBC01FD
:10166000C1010E94C8081A8219821C821B821E8234
:101670001D82B101C3010E94E908C3010E94A408B0
:10168000DC0114964D915C9115976D917C918FECD6
:1016900092E00E946D0469E872E08FEC92E00E9493
:1016A0002C08C3010E940009C1010E940009809119
:1016B0004204882309F46AC080914304811126C042
:1016C00081E0809343048BE592E00E945A0580916B
:1016D00042048823B1F081E00E9438060E9432045F
:1016E0006B017C010E9432046C197D098E099F09EF
:1016F000643F714081059105E0F40E944503882311
:1017000089F31092430480E00E94380661E08DE086
:101710000E947C0360E08CE00E947C0385E392E001
:101720000E943B0860E777E180E090E00E940004BF
:101730007FCD0E9432046B017C010E9432046C193F
:101740007D098E099F090E94901420E030E048EC4A
:1017500052E40E948B1487FF80C241E061E087E57C
:1017600092E00E946A0527E832E050E040E070E035
:1017700060E090E080E00E94FB06182F0E94450385
:101780008111BFCF1123C9F21092430461E08CE0B4
:101790000E947C0360E08DE00E947C038091430402
:1017A000811109C081E08093430480914204882321
:1017B00099F0109243048CE592E00E943B0861E0AE
:1017C0008BE00E947C0360E08AE00E947C0368E872
:1017D00073E180E090E0AACF41E061E083E792E02E
:1017E0000E946A0527E832E046E552E062E070E0D8
:1017F000C3010E94FB06811103C00E944503D9CF9B
:101800008981082E000C990BC0970A9790F6C301A6
:101810000E94AA1190930102809300021092430447
:1018200002974CF261E08AE00E947C0360E08BE06A
:101830000E947C0360E087E00E947C0360E089E016
:101840000E947C0361E088E00E947C03F101118228
:1018500010821382128215821482830122E044E0F6
:10186000C501B4010E948C11009709F405C1FC0167
:1018700001900020E9F73197AF01481B590BBC01DB
:10188000C1010E94C8081A8219821C821B821E8212
:101890001D82B101C3010E94E908C3010E94A4088E
:1018A000C35BDE4F19821882CD54D140C15BDE4F3D
:1018B00019821882CF54D140CF5ADE4F1982188234
:1018C000C155D140BC01CE01835B9E4F0E94E90807
:1018D000C3010E940009C1010E94000980914304D4
:1018E0008111F7C0C35BDE4F08811981CD54D1400F
:1018F00081E08093430482E293E00E945A05809144
:1019000042048111E4C00115110509F0B9C041E09C
:1019100061E087E193E00E946A0527E832E050E049
:1019200040E070E060E090E080E00E94FB068823E9
:1019300009F4CBC00E943204C15ADE4F6883798318
:101940008A839B83CF55D1406E01E9EACE1AEEEF30
:10195000DE0A5E01FBEAAF1AFEEFBF0A84EB882EB7
:1019600082E0982E0E9432047B018C01C15ADE4F26
:10197000288139814A815B81CF55D140E21AF30A2F
:10198000040B150BA0913E04B0913F0428EE33E008
:101990000E944215E616F7060807190708F058C115
:1019A000809148048823D9F041E061E08BE792E020
:1019B0000E946A0527E832E04CE852E068E170E0F6
:1019C000C3010E94FB06882309F47FC08981082E89
:1019D000000C990B0E94D817892B09F432C1C35A05
:1019E000DE4F19821882CD55D140C55ADE4F19827B
:1019F0001882CB55D140C75ADE4F19821882C9557B
:101A0000D140D6011D921C92F50111821082CD5A4F
:101A1000DE4F19821882C355D14041E061E085E86C
:101A200092E00E946A0527E832E045E952E060E270
:101A300070E0C3010E94FB06811171C00E94450342
:101A40008111FCC003E010E010924304012B09F067
:101A500040C060E088E00E947C0361E087E00E9473
:101A60007C0360E089E00E947C0387E090E0909333
:101A7000C5028093C40243C0C1010E94920803CFF3
:101A80006DE070E0C8010E94F417009711F0DC01CE
:101A90001C92F80101900020E9F73197E01BF10B4F
:101AA000E535F140A0F441E061E08DE093E00E9473
:101AB0006A0528E732E050E040E070E060E090E046
:101AC00080E00E94FB06811120C00E944503109215
:101AD000430481EA92E00E943B0860E088E00E94B3
:101AE0007C0361E089E00E947C0360E087E00E9463
:101AF0007C0364EF71E080E090E00E940004CE017E
:101B0000835B9E4F0E94000993CBC8010E944E0840
:101B100080E892E00E944E0822E832E000CFEDE536
:101B2000F1E0EC0FFD1FD1011196FC93EE932BE534
:101B300031E02C0F3D1F13963C932E93129749E5ED
:101B400051E04C0F5D1F15965C934E9314971796BA
:101B5000DC92CE9216971996BC92AE92189783E5B6
:101B600091E08C0F9D1F1B969C938E931A97710189
:101B700010E000E0C3016EE972E00E94EF110097EF
:101B800009F460CF0E94C811D701ED91FD917D014C
:101B9000718360830F5F1F4F80E090E00630110576
:101BA00051F78DEF92E00E945A05C35ADE4FE8804C
:101BB000F980CD55D140FF92EF929F928F927F9204
:101BC0006F920E940618C3010E94A0068AEF92E05D
:101BD0000E945A050F900F900F900F900F900F904A
:101BE000E5E0EE16F10488F489EE92E00E945A05D1
:101BF000CD5ADE4F88819981C355D14090934104DD
:101C00008093400410E000E01FCFC7018D7F0C9748
:101C100021F0B0E1EB16F10429F48AED92E00E9484
:101C20005A0512CF8DEB92E00E945A0580913A043A
:101C300090913B040E943E04811194CE04E010E098
:101C400003CF80EA92E00E945A058AE090E0F2CF4A
:101C50008FE892E00E945A053ACF82E492E00E9417
:101C60005A054FCD1F920F920FB60F9211242F934A
:101C70003F938F939F93AF93BF938091C7029091AF
:101C8000C802A091C902B091CA023091C60223E0F5
:101C9000230F2D3758F50196A11DB11D2093C602C3
:101CA0008093C7029093C802A093C902B093CA025E
:101CB0008091CB029091CC02A091CD02B091CE0246
:101CC0000196A11DB11D8093CB029093CC02A093ED
:101CD000CD02B093CE02BF91AF919F918F913F9172
:101CE0002F910F900FBE0F901F90189526E8230F8D
:101CF0000296A11DB11DD2CF1F920F920FB60F9267
:101D000011240BB60F922F933F934F935F936F93D2
:101D10007F938F939F93AF93BF93EF93FF938BE941
:101D200093E00E94EB04FF91EF91BF91AF919F91DF
:101D30008F917F916F915F914F913F912F910F9074
:101D40000BBE0F900FBE0F901F9018951F920F9211
:101D50000FB60F9211240BB60F922F938F939F9370
:101D6000EF93FF93E091AB03F091AC038081E0919E
:101D7000B103F091B20382FD1DC090818091B40344
:101D80008F5F8F732091B503821741F0E091B40308
:101D9000F0E0E556FC4F958F8093B403FF91EF91EF
:101DA0009F918F912F910F900BBE0F900FBE0F90B0
:101DB0001F9018958081F2CF1F920F920FB60F924D
:101DC00011240BB60F922F933F934F935F936F9312
:101DD0007F938F939F93AF93BF93EF93FF938FEC7A
:101DE00092E00E94EB04FF91EF91BF91AF919F9120
:101DF0008F917F916F915F914F913F912F910F90B4
:101E00000BBE0F900FBE0F901F9018951F920F9250
:101E10000FB60F9211240BB60F922F938F939F93AF
:101E2000EF93FF93E091DF02F091E0028081E09177
:101E3000E502F091E60282FD1DC090818091E802EA
:101E40008F5F8F732091E902821741F0E091E802E1
:101E5000F0E0E153FD4F958F8093E802FF91EF9101
:101E60009F918F912F910F900BBE0F900FBE0F90EF
:101E70001F9018958081F2CF10929E0310929D03BF
:101E800048EE53E060E070E040939F035093A0035E
:101E90006093A1037093A2038CE092E090939C0363
:101EA00080939B0325E331E03093A8032093A7039D
:101EB00024E331E03093AA032093A90320E331E027
:101EC0003093AC032093AB0321E331E03093AE03B6
:101ED0002093AD0322E331E03093B0032093AF03AE
:101EE00026E331E03093B2032093B1031092B403A0
:101EF0001092B5031092B6031092B7031092D2025B
:101F00001092D1024093D3025093D4026093D50231
:101F10007093D6029093D0028093CF0285EC90E02C
:101F20009093DC028093DB0284EC90E09093DE02DD
:101F30008093DD0280EC90E09093E0028093DF02DA
:101F400081EC90E09093E2028093E10282EC90E0D9
:101F50009093E4028093E30286EC90E09093E60293
:101F60008093E5021092E8021092E9021092EA02D0
:101F70001092EB028BE993E090933904809338043C
:101F80008EE190E090933B0480933A048AE090E0E5
:101F900090933D0480933C048CE291E090933F0445
:101FA00080933E048FEF9FEF909341048093400411
:101FB00021E0209342041092430446E050E0509305
:101FC000450440934404909347048093460420932F
:101FD00048041092490410924A0410924B04109243
:101FE0004C0410924D0410924E042AE132E03093DA
:101FF000500420934F043093520420935104909343
:1020000054048093530461E086E00E94AA03809107
:102010004604909147048F3F980719F060E00E94B2
:10202000AA0386E18093930310929403E8E9F4E015
:10203000E491E0939503E2E5F4E0E491E093960304
:1020400080E89EE3A0E0B0E080939703909398032C
:10205000A0939903B0939A031092880360E086E1FD
:102060000E94AA0361E0809193030E947C0382E1B5
:1020700090E0909373038093720383E090E09093D9
:1020800075038093740387E090E0909377038093C7
:10209000760388E090E0909379038093780389E059
:1020A00090E090937B0380937A038AE090E0909392
:1020B0007D0380937C038BE090E090937F0380937B
:1020C0007E038DE090E090938103809380038CE009
:1020D00090E090938303809382038AE190E0909351
:1020E00085038093840387E190E090938703809336
:1020F000860384E090E090936D0380936C0382E00C
:1021000090E090936F0380936E0383E190E090934F
:102110007103809370030895789484B5826084BDC0
:1021200084B5816084BD85B5826085BD85B58160DB
:1021300085BD80916E00816080936E001092810059
:102140008091810082608093810080918100816014
:1021500080938100809180008160809380008091D5
:10216000B10084608093B1008091B0008160809361
:10217000B0008091910082608093910080919100E5
:1021800081608093910080919000816080939000A5
:102190008091A10082608093A1008091A100816064
:1021A0008093A1008091A00081608093A000809125
:1021B00021018260809321018091210181608093BF
:1021C00021018091200181608093200180917A001B
:1021D000846080937A0080917A00826080937A0094
:1021E00080917A00816080937A0080917A00806883
:1021F00080937A001092C100C2E7D3E061E0888149
:102200000E94AA03229683E0C838D807B9F760E095
:1022100080916C030E94AA0360E080916E030E948B
:10222000AA0360E0809170030E94AA03E091DF029C
:10223000F091E00222E02083E091DB02F091DC02E9
:102240001082E091DD02F091DE0280E18083109245
:10225000E702E091E302F091E40296E09083E091DE
:10226000E102F091E202808180618083E091E102ED
:10227000F091E202808188608083E091E102F09138
:10228000E202808180688083E091E102F091E202C5
:1022900080818F7D8083E091AB03F091AC0320833C
:1022A000E091A703F091A8031082E091A903F091B7
:1022B000AA0387E680831092B303E091AF03F09105
:1022C000B0039083E091AD03F091AE038081806113
:1022D0008083E091AD03F091AE03808188608083BC
:1022E000E091AD03F091AE03808180688083E0913E
:1022F000AD03F091AE0380818F7D80838EE190E00D
:1023000090933D0480933C048CE291E090933F04D1
:1023100080933E040E940809EF920F931F93CF937E
:10232000DF93E80134E047FD34E1042E000C550B47
:1023300057FF03C0519541955109E32E022F242FD9
:10234000AE010E943712CE01DF91CF911F910F9104
:10235000EF900895FC0188279927E8942191203275
:10236000E9F3293010F02E30C8F32B3241F02D3232
:1023700039F4689404C00E942F12820F911D21919C
:1023800020532A30C0F31EF4909581959F4F0895F5
:102390001F93FC0199278827BC01E8941191103202
:1023A000E9F3193010F01E30C8F31B3251F01D3222
:1023B00049F4689406C00E941A12610F711D811DB4
:1023C000911D119110531A30B0F33EF49095809501
:1023D000709561957F4F8F4F9F4F1F91089545E5F1
:1023E00054E00C94F311FA01A191B081009719F413
:1023F0001097E1F0CD01DC01CD010D90002011F42A
:10240000C00113C0FB012191222319F02015D9F737
:10241000F3CFFB012191201519F41E92119606C0ED
:102420002223C1F70D900020A1F7D001FA01A1935A
:10243000B0830895592F482F372F262F660F771F07
:10244000881F991F660F771F881F991F620F731FC0
:10245000841F951F660F771F881F991F08957AE0C4
:10246000979F902D879F802D910D112408958F9215
:102470009F92AF92BF92CF92DF92EF92FF920F9313
:102480001F93CF93DF9300D000D000D0CDB7DEB73D
:102490006A01F22EB02E102FFBE3AF2EA01608F427
:1024A0001BE31F5F012F27E0AE014F5F5F4F0E94CC
:1024B000B013BC018981982F9970913009F44EC0F6
:1024C0009BE2E1FC04C09E2D9170E0FC49C05E2DB2
:1024D0005071E82FE87083FF55C084E0911101C06E
:1024E00083E0EF2DE81B8F1508F0E0E0D6018E2F7A
:1024F00020E25523C9F1992329F0D6019C93C60106
:1025000001966C0196012D5F3F4FE2FE33C08EE4D1
:10251000D6018C9391E411969C93119712968C930B
:10252000D9018E2F90E281112AC0E20FF32FF11D05
:1025300010828EEF9FEF29960FB6F894DEBF0FBE84
:10254000CDBFDF91CF911F910F91FF90EF90DF9062
:10255000CF90BF90AF909F908F9008959DE2B7CF9E
:1025600090E2B5CF2D9381508111FCCFCE0ED11CBE
:10257000E0E0C1CF8EE6D6018C9391E6CCCF9D935F
:102580008150D1CF482F447082FF3DC084E091112B
:1025900001C083E08F1510F4EF2DE81BD6018E2FBC
:1025A00020E2552309F1992329F0D6019C93C60115
:1025B00001966C0196012D5F3F4FE2FE1BC089E43E
:1025C000D6018C938EE411968C93119786E4129623
:1025D0008C93D9018E2F90E2882309F4A6CF9D9386
:1025E0008150FACF2D9381508111FCCFCE0ED11C9A
:1025F000E0E0D9CF89E6D6018C938EE611968C93D4
:10260000119786E6E4CF9B0177FF02C030E020E01F
:10261000A1E0B0E0911102C0B0E0A0E0F901319674
:10262000AE0FBF1F8B2C912CBB2009F461C054014D
:10263000EFEFAE1ABE0AAA0DBB1DFA161B0619F063
:1026400014F04F2D4A1B511188C0E3FC59C076018C
:10265000A42FB0E2A1114FC0C40ED11C992309F4DC
:102660005BC040E0D6011196F60190836D015523C1
:1026700009F448C0012F060F9A81582F507184FF2A
:1026800003C0913309F4015010160CF047C0093013
:1026900008F008E0EEE2FE2E5B01A01AB108850109
:1026A0009194819491082F3F320729F4D601FC922E
:1026B000F60131966F016217730794F10217130741
:1026C0007CF5DB01A21BB30BAA24A394B12CAC0EA6
:1026D000BD1EAA0DBB1D11968C9121503109D6014A
:1026E000119628153905F4F0F60180836D01DBCFD2
:1026F000B12CA12CA0CFF701B1937F01A150AACF9B
:102700009111B0CFD601942F50E302C05D93915048
:102710009111FCCFC40ED11C40E0ACCF01E0BACF88
:1027200080E3DBCF6217730731F4963388F4953377
:1027300011F4552369F0F6018083FD01842F90E2A6
:10274000811108C0A40FB11D1C9290E080E0F3CE6F
:1027500081E3F1CF91938150F3CF911183CF8ACF51
:10276000283008F027E03327DA01990F311D87FD63
:10277000916000966105710539F432602E5F3D93DA
:1027800030E32A95E1F708959F3F30F080387105D6
:10279000610509F03C5F3C5F3D93913008F0806833
:1027A000911DDF93CF931F930F93FF92EF92192FF9
:1027B000987F9695E92F96959695E90FFF27EE5508
:1027C000FE4F99273327EE24FF24A701E701059048
:1027D0000894079428F4360FE71EF81E491F511D70
:1027E000660F771F881F991F0694A1F7059007941D
:1027F00028F4E70EF81E491F561FC11D770F881FCA
:10280000991F661F0694A1F70590079428F4F80E07
:10281000491F561FC71FD11D880F991F661F771F9D
:102820000694A1F70590079420F4490F561FC71F7F
:10283000D81F990F661F771F881F0694A9F78491E8
:102840001095177041F0D695C79557954795F79411
:10285000E7941A95C1F7E8E4F1E0689415901591B2
:1028600035916591959105907FE27395E118F10A94
:10287000430B560BC90BD009C0F7E10CF11E431FE7
:10288000561FC91FD01D7EF4703311F48A95E6CF10
:10289000E894015030F0080F0AF40027021708F4FA
:1028A000202F2395022F7A3328F079E37D932A9500
:1028B000E9F710C07D932A9589F606949795679558
:1028C000379517951794E118F10A430B560BC90B6E
:1028D000D00998F023957E9173957A3308F070E3D0
:1028E0007C932013B8F77E9170617D9330F08395CF
:1028F00071E37D9370E32A95E1F71124EF90FF9047
:102900000F911F91CF91DF91992787FD90950895A1
:102910009927882708950E94CD1408F481E008952E
:10292000E89409C097FB3EF4909580957095619569
:102930007F4F8F4F9F4F9923A9F0F92F96E9BB271F
:102940009395F695879577956795B795F111F8CF9B
:10295000FAF4BB0F11F460FF1BC06F5F7F4F8F4F06
:102960009F4F16C0882311F096E911C0772321F0FC
:102970009EE8872F762F05C0662371F096E8862F94
:1029800070E060E02AF09A95660F771F881FDAF7EB
:10299000880F9695879597F90895990F0008550F18
:1029A000AA0BE0E8FEEF16161706E807F907C0F0D5
:1029B00012161306E407F50798F0621B730B840BDD
:1029C000950B39F40A2661F0232B242B252B21F4B7
:1029D00008950A2609F4A140A6958FEF811D811D57
:1029E000089597F99F6780E870E060E008959FEF91
:1029F00080EC089500240A94161617061806090696
:102A0000089500240A941216130614060506089564
:102A1000092E0394000C11F4882352F0BB0F40F4EC
:102A2000BF2B11F460FF04C06F5F7F4F8F4F9F4F2C
:102A3000089557FD9058440F551F59F05F3F71F0AE
:102A40004795880F97FB991F61F09F3F79F0879515
:102A50000895121613061406551FF2CF4695F1DF9E
:102A600008C0161617061806991FF1CF869571052E
:102A7000610508940895E894BB2766277727CB0162
:102A800097F908950E944915B7FF0895821B930B8B
:102A90000895A29FB001B39FC001A39F700D811D37
:102AA0001124911DB29F700D811D1124911D089557
:102AB000EE0FFF1F881F8BBF0790F691E02D199432
:102AC0000E9474150C9408150E94011558F00E947C
:102AD000FA1440F029F45F3F29F00C94F1145111DD
:102AE0000C943C150C94F7140E94191568F3992363
:102AF000B1F3552391F3951B550BBB27AA276217FA
:102B00007307840738F09F5F5F4F220F331F441F06
:102B1000AA1FA9F335D00E2E3AF0E0E832D091503A
:102B20005040E695001CCAF72BD0FE2F29D0660F27
:102B3000771F881FBB1F261737074807AB07B0E86A
:102B400009F0BB0B802DBF01FF2793585F4F3AF070
:102B50009E3F510578F00C94F1140C943C155F3FA6
:102B6000E4F3983ED4F3869577956795B795F795F6
:102B70009F5FC9F7880F911D9695879597F90895DE
:102B8000E1E0660F771F881FBB1F6217730784077A
:102B9000BA0720F0621B730B840BBA0BEE1F88F789
:102BA000E09508950F931F93CF93DF9382309105A3
:102BB00010F482E090E0E0915904F0915A0430E082
:102BC00020E0B0E0A0E0309799F42115310509F438
:102BD0004AC0281B390B24303105D8F58A819B81E6
:102BE0006115710589F1FB0193838283FE0111C098
:102BF000408151810281138148175907E0F048173D
:102C0000590799F4109761F012960C931297139646
:102C10001C933296CF01DF91CF911F910F910895B0
:102C20000093590410935A04F4CF2115310551F043
:102C30004217530738F0A901DB019A01BD01DF01FA
:102C4000F801C1CFEF01F9CF90935A048093590452
:102C5000CDCFFE01E20FF31F8193919322503109F2
:102C600039832883D7CF2091570430915804232BE0
:102C700041F42091040230910502309358042093CE
:102C8000570420910202309103022115310541F4CD
:102C90002DB73EB74091060250910702241B350B19
:102CA000E0915704F0915804E217F307A0F42E1BAB
:102CB0003F0B2817390778F0AC014E5F5F4F2417A0
:102CC000350748F04E0F5F1F509358044093570448
:102CD000819391939FCFF0E0E0E09CCFCF93DF937F
:102CE0000097E9F0FC01329713821282A0915904F7
:102CF000B0915A04ED0130E020E01097A1F420815A
:102D00003181820F931F2091570430915804281766
:102D1000390709F061C0F0935804E0935704DF913C
:102D2000CF910895EA01CE17DF07E8F54A815B816C
:102D30009E0141155105B1F7E901FB83EA834991F1
:102D40005991C40FD51FEC17FD0761F48081918163
:102D50000296840F951FE90199838883828193816C
:102D60009B838A83F0E0E0E012968D919C9113970B
:102D70000097B9F52D913C911197CD010296820FE4
:102D8000931F20915704309158042817390739F6BA
:102D9000309751F510925A0410925904B093580488
:102DA000A0935704BCCFD383C28340815181840F49
:102DB000951FC817D90761F44E5F5F4F88819981CD
:102DC000480F591F518340838A819B81938382835B
:102DD0002115310509F0B0CFF0935A04E09359045E
:102DE0009ECFFD01DC01C0CF13821282D7CF4F925C
:102DF0005F926F927F928F929F92AF92BF92CF928B
:102E0000DF92EF92FF920F931F93CF93DF938C018A
:102E1000009799F4CB01DF91CF911F910F91FF9013
:102E2000EF90DF90CF90BF90AF909F908F907F906A
:102E30006F905F904F900C94D215FC01E60FF71F36
:102E40009C0122503109E217F30708F4AEC0D90102
:102E5000CD91DC911197C617D70720F1C530D10568
:102E600078F0CE0104978617970750F0C61BD70B52
:102E70002297C193D1936D937C93CF010E946E16DC
:102E8000C801DF91CF911F910F91FF90EF90DF90DC
:102E9000CF90BF90AF909F908F907F906F905F90FA
:102EA0004F9008955B01AC1ABD0A4C018C0E9D1E1B
:102EB000A0915904B0915A04512C412CF12CE12CD1
:102EC000109731F580915704909158048815990511
:102ED00009F05CC04616570608F058C080910202FF
:102EE00090910302009741F48DB79EB7409106027E
:102EF00050910702841B950BE817F90708F055C09D
:102F0000F0935804E0935704F90171836083B8CFBC
:102F10008D919C91119712966C90129713967C90BC
:102F20001397A815B90559F56C0142E0C40ED11CE0
:102F3000CA14DB0420F1AC014A195B09DA011296CC
:102F4000159780F06282738251834083D9016D931B
:102F50007C93E114F10471F0D7011396FC93EE9386
:102F600012978ECF22968C0F9D1FF901918380833B
:102F7000F301EFCFF0935A04E093590481CF481640
:102F8000590608F42C017D01D3019ACFCB010E9490
:102F9000D2157C01009749F0AE01B8010E94E417F8
:102FA000C8010E946E1687016BCF10E000E068CF69
:102FB00091110C94881480538A5028F0865C8062AA
:102FC00081568650B0F70895FB01DC0102C00190E4
:102FD0000D9241505040D8F70895DC0101C06D9327
:102FE00041505040E0F70895FC018191861721F08F
:102FF0008823D9F7992708953197CF010895FB01C8
:10300000DC0101900D920020E1F708950F931F93CA
:10301000CF93DF93CDB7DEB72E970FB6F894DEBF10
:103020000FBECDBF0E891F8986E08C831A8309836A
:103030008FEF9FE79E838D83AE01465E5F4F688D65
:10304000798DCE0101960E9436182F813885020FA6
:10305000131FF80110822E960FB6F894DEBF0FBE34
:10306000CDBFDF91CF911F910F9108952F923F9285
:103070004F925F926F927F928F929F92AF92BF9288
:10308000CF92DF92EF92FF920F931F93CF93DF9334
:1030900000D000D000D01F921F92CDB7DEB77C01C8
:1030A0003B018A01FC0117821682838181FFDDC109
:1030B000CE0101965C01F7019381F30193FD8591A7
:1030C00093FF81913F01882309F453C1853239F47C
:1030D00093FD859193FF81913F01853229F4B701DA
:1030E00090E00E944E1AE7CF912C212C312CFFE169
:1030F000F31538F08B3211F190F4803209F18332FC
:1031000029F137FC3CC020ED280F2A3050F536FE5F
:1031100020C08AE0989E200D1124922E06C08D3288
:1031200091F0803371F7689430F8F30193FD859145
:1031300093FF81913F018111DACF21C0689431F86A
:10314000689432F8F2CF689433F8EFCF689434F88B
:10315000ECCFEAE02E9E200D1124222E689435F843
:10316000E4CF8E3229F436FC04C1689436F8DDCF02
:103170008C3619F4689437F8D8CF8836B1F2982F86
:103180009F7D95549330E0F08336A1F18337C1F1F0
:10319000833509F063C02801F2E04F0E511CF8019D
:1031A000C080D180692D70E036FC02C06FEF7FEFE8
:1031B000C6010E94381A4C01689437F882010AC08F
:1031C0000C5F1F4FFFE3F98388248394912C6501E2
:1031D000E89437F833FE2DC0522C8114910471F518
:1031E000552009F468CFB70180E290E00E944E1AA2
:1031F0005A94F6CFF801808189830E5F1F4FE4CF88
:103200002801F2E04F0E511CF801C080D180692DD9
:1032100070E036FC02C06FEF7FEFC6010E94431AD8
:103220004C018201D5CFB70180E290E00E944E1A96
:103230002A942814190409F0B0F7CECFF60137FC10
:10324000859137FE81916F01B70190E00E944E1A7F
:1032500051105A94F1E08F1A9108BFCF843619F0BB
:10326000893609F077C0F80137FE6BC06081718143
:10327000828193810C5F1F4FF32DFF763F2E97FFC6
:1032800009C090958095709561957F4F8F4F9F4FA6
:10329000689437F82AE030E0A5010E947E1AC82E13
:1032A000CA188C2C432C36FE0CC0E89440F8C91484
:1032B00040F434FE05C032FC03C0F32DFE7E4F2ED9
:1032C000892C44FEAAC0FE01EC0DF11D80818033E3
:1032D00009F09CC0242D297E422E842D8870582E02
:1032E00043FCAAC040FEA4C09C2C821418F42C0CF1
:1032F000922C981844FEA6C0B70180E390E00E948B
:103300004E1A42FE09C088E790E041FE02C088E5FF
:1033100090E0B7010E944E1AC91408F49FC0CA94E5
:10332000D12C9FEFC91AD90ACA0CDB1CF601829175
:103330006F01B70190E00E944E1AAC14BD04B1F7C2
:103340004FCF60817181072E000C880B990B0E5FA7
:103350001F4F92CFD32CE894D4F82AE030E0853781
:10336000E1F1232D297FD22E8F36A9F1F0F4883593
:1033700051F1F701868197812B960FB6F894DEBF45
:103380000FBECDBFDF91CF911F910F91FF90EF90B6
:10339000DF90CF90BF90AF909F908F907F906F9075
:1033A0005F904F903F902F900895803749F0883775
:1033B00001F7D4FE02C06894D2F820E130E00DC0DD
:1033C0006894D4F8F6CF34FE03C0822F8660D82EDE
:1033D00020E132E002C028E030E0F801D7FE0FC063
:1033E00060817181828193810C5F1F4FA5010E94D2
:1033F0007E1AC82ECA183D2CE89437F852CF608147
:10340000718190E080E00E5F1F4FF0CF42FC02C060
:10341000839463CF8394839460CF842D867809F45A
:103420005CCFF6CFB70180E290E00E944E1A839401
:103430008214C0F3512C5ECF522C5818821408F419
:1034400059CFF8CF842D867809F466CF8BE241FE00
:1034500080E247FC8DE2B70190E05CCFB70180E3EA
:1034600090E00E944E1A9A9457CF8FEF9FEF84CF2F
:10347000FC010590615070400110D8F7809590953F
:103480008E0F9F1F0895FC01615070400190011044
:10349000D8F7809590958E0F9F1F08950F931F93D7
:1034A000CF93DF93182F092FEB018B8181FD09C08A
:1034B0001FEF0FEF812F902FDF91CF911F910F9171
:1034C000089582FF14C02E813F818C819D81281731
:1034D00039073CF4E881F981CF010196998388830B
:1034E00010838E819F8101969F838E83E3CFE88531
:1034F000F985812F1995892BA1F3DACFFA01AA2733
:10350000283051F1203181F1E8946F936E7F6E5F26
:103510007F4F8F4F9F4FAF4FB1E03ED0B4E03CD0D4
:10352000670F781F891F9A1FA11D680F791F8A1FB7
:10353000911DA11D6A0F711D811D911DA11D20D01E
:1035400009F468943F912AE0269F11243019305DD8
:103550003193DEF6CF010895462F4770405D4193C9
:10356000B3E00FD0C9F7F6CF462F4F70405D4A3316
:1035700018F0495D31FD4052419302D0A9F7EACFDE
:10358000B4E0A6959795879577956795BA95C9F70D
:1035900000976105710508959B01AC010A2E069400
:1035A0005795479537952795BA95C9F7620F731FB9
:0C35B000841F951FA01D0895F894FFCF04
:1035BC00FFFF00005B048000000000000D056D049F
:1035CC009A04AE06CB04A904BD0453424452494E9E
:1035DC00470D0A00206465672E204300536C656517
:1035EC0070696E6700436F756C646E27742062653A
:1035FC0067696E206D6F64656D206F7065726174A4
:10360C00696F6E732E002B4353513A005369676EEA
:10361C00616C5175616C697479206661696C656463
:10362C003A206572726F720052454144590D0A007E
:10363C000D00300D0A0D0A4F4B0D0A002D4D535342
:10364C00544D3A20002B53424449583A20002C2028
:10365C000053656E64206661696C65643A2065721E
:08366C00726F72002575000069
:00000001FF
