:100000000C9465020C9496020C9496020C94960241
:100010000C9496020C9496020C9496020C94960200
:100020000C9496020C9496020C9496020C949602F0
:100030000C9496020C9496020C9496020C949602E0
:100040000C9496020C9496020C9496020C949602D0
:100050000C9496020C9496020C9496020C945709F8
:100060000C9496020C942B0A0C94010A0C949602A0
:100070000C9496020C9496020C9496020C949602A0
:100080000C9496020C9496020C9496020C94960290
:100090000C9496020C9496020C9496020C94960280
:1000A0000C9496020C9496020C9496020C94960270
:1000B0000C9496020C9496020C9496020C94960260
:1000C0000C9496020C9496020C9496020C94960250
:1000D0000C9496020C9496020C94CB090C94A109F2
:1000E0000C9496020C94610A0C940E030C943C033D
:1000F0000C9421030C9417030C94FC020C9402033F
:100100000C9441030C9411030C9406030C94A90461
:100110000C9433030C942F030C94BD040C9429030A
:100120000C949A040C9437030C946D040C94CB0437
:100130000C9425030C941B030C940A030C940D05DA
:100140000C943D030C94AE0600407A10F35A00A0C4
:10015000724E18090010A5D4E80000E87648170090
:1001600000E40B54020000CA9A3B000000E1F505D0
:10017000000080969800000040420F000000A0861A
:1001800001000000102700000000E803000000004C
:100190006400000000000A000000000001000000F0
:1001A00000002C76D888DC674F0823DFC1DFAE590A
:1001B000E1B1B796E5E3E453C63AE651997696E89D
:1001C000E6C28426EB898C9B62ED407C6FFCEFBC21
:1001D0009C9F40F2BAA56FA5F490055A2AF75C934C
:1001E0006B6CF9676DC11BFCE0E40D47FEF520E682
:1001F000B500D0ED902E0300943577050080841E65
:10020000080000204E0A000000C80C333333330FBF
:10021000986E12831141EF8D2114893BE65516CF5C
:10022000FEE6DB18D1844B381BF77C1D901DA4BB68
:10023000E424203284725E228100C9F124ECA1E51D
:100240003D274E6F206D6F64656D20646574656336
:100250007465642E0D0A0041540D0043616C6C6995
:100260006E6720696E7465726E616C426567696E57
:100270000D0A0041542B4353510D0041542D4D5351
:1002800053544D0D0041542B53424449580D0053D3
:10029000424449582074696D656F7574210D0A00D8
:1002A00057616974696E6720666F72204D535354AD
:1002B0004D2072657472792E2E2E0D0A00576169D9
:1002C00074696E6720666F722053424449582072E9
:1002D000657472792E2E2E0D0A005342444958201F
:1002E000666174616C210D0A0053424449582073C1
:1002F000756363657373210D0A000D0A0053424450
:100300004958204D4F20636F64653A200041542BBB
:1003100053424457540D0041542B53424457543DCB
:100320000D00696E7465726E616C53656E64526522
:1003300063656976650D0A0000002100240027002E
:100340002A002D00300033000101000004010701E4
:100350000A0100002200250028002B002E00310099
:10036000340002010000050108010B01506F7765A0
:1003700072696E67206F6E206D6F64656D2E2E2E14
:100380000D0A00506F776572696E67206F66662090
:100390006D6F64656D2E2E2E0D0A000D0A003E3E17
:1003A00020003C3C20000D0A0057616974696E67AB
:1003B00020666F7220726573706F6E736520000027
:1003C000000A0B02090C0D0E0807030401000000CF
:1003D000000000000000000000000000000000001D
:1003E00000000000000000000000001211100000DA
:1003F00000000000000000000000000000000000FD
:10040000000000000053424452494E4720616C6591
:100410007274207365656E210D0A000D0A003E3E60
:100420002000000020002300260029002C002F00BF
:100430003200000100000301060109010505050560
:10044000070508080808020202020A0A080804044C
:10045000040401010101010101010303030303037A
:100460000303040707070C0C0C0C0C0C0C0C020209
:10047000020206060606060606060B0B0B0B0B0B06
:100480000B0B010210202008081020401020408093
:100490000201020108040201010204081020408048
:1004A00080402010080402018004020180402010D6
:1004B000080402010804020101020408102040801F
:1004C0000102040810204080610A11241FBECFEFF2
:1004D000D1E2DEBFCDBF00E00CBF24E0A2ECB2E071
:1004E00001C01D92A934B207E1F712E0A0E0B2E02A
:1004F000E6E6F5E300E00BBF02C007900D92A23CD8
:10050000B107D9F712E0C5E6D2E000E006C02197B6
:100510000109802FFE010E942D15C436D10780E00D
:100520000807A9F70E945C0B0C94B11A0C94000008
:100530008F929F92AF92BF92CF92DF92EF92FF92F3
:10054000CF93DF93A091830330E081113A2F809104
:10055000840390E0880F991FAC014E5D5B4FC09003
:100560008503D0908603E0908703F090880360E0D5
:1005700070E0CB01FA01C591D49128812A2323137D
:100580000FC04B015C012FEF821A920AA20AB20A35
:100590006C157D058E059F0570F060E070E0CB0165
:1005A000DF91CF91FF90EF90DF90CF90BF90AF9011
:1005B0009F908F900895C501B401DCCF81508231A6
:1005C00008F05AC0E82FF0E08827E651FD4F8F4F22
:1005D0000C942D150A030E03FC02020306033C03D0
:1005E000110317031B032103250329032F033303DF
:1005F0003C0337033D034103809180008F77809354
:1006000080000895809180008F7DF9CF80918000D7
:10061000877FF5CF84B58F7784BD089584B58F7DAE
:10062000FBCF8091B0008F778093B00008958091C8
:10063000B0008F7DF9CF809190008F7780939000EC
:100640000895809190008F7DF9CF80919000877FF1
:10065000F5CF8091A0008F778093A00008958091BE
:10066000A0008F7DF9CF8091A000877FF5CF80918A
:1006700020018F77809320010895809120018F7D44
:10068000F9CF80912001877FF5CFCF93DF93209121
:100690003404309135042F3F320791F03327F901AC
:1006A000E154FC4F8491F901EE57FB4FD491F901CD
:1006B000E45CFB4FC491C1110EC081E0809338040B
:1006C00080E090E0892BB1F00E94000091E0892742
:1006D000DF91CF91089581110E94DE02EC2FF0E0AE
:1006E000EE0FFF1FEE5DFB4FA591B491EC91ED2352
:1006F00021F3E6CF80E0ECCF1F93CF93DF93282F39
:1007000030E0F901E154FC4F8491F901EE57FB4FC1
:10071000D491F901E45CFB4FC491CC23A9F0162FCE
:1007200081110E94DE02EC2FF0E0EE0FFF1FEE5A67
:10073000FC4FA591B4918FB7F894EC91111108C0BA
:10074000D095DE23DC938FBFDF91CF911F91089569
:10075000DE2BF8CFCF93DF9390E0FC01EE57FB4FF9
:100760002491845C9B4FFC0184918823D1F090E01C
:10077000880F991FFC01E85CFC4FA591B491FC0126
:10078000EE5AFC4FC591D49161110EC09FB7F894F9
:100790008C91E22FE0958E238C932881E223E883CD
:1007A0009FBFDF91CF9108958FB7F894EC91E22B22
:1007B000EC938FBFF6CF3FB7F8948091D50290911C
:1007C000D602A091D702B091D80226B5A89B05C049
:1007D0002F3F19F00196A11DB11D3FBFBA2FA92FC0
:1007E000982F8827BC01CD01620F711D811D911DBD
:1007F00042E0660F771F881F991F4A95D1F7089529
:100800008F929F92AF92BF92CF92DF92EF92FF9220
:100810004B015C010E94DB036B017C010E94DB0346
:100820006C197D098E099F09683E73408105910509
:10083000A8F321E0821A9108A108B10888EEC80E39
:1008400083E0D81EE11CF11C81149104A104B104C1
:1008500029F7FF90EF90DF90CF90BF90AF909F90DF
:100860008F9008952FB7F8946091D1027091D202C1
:100870008091D3029091D4022FBF08958F929F92BE
:10088000AF92BF92CF92DF92EF92FF925C010E94F3
:1008900032046B017C0128EE33E0D5010E9417156C
:1008A0004B015C010E9432046C197D098E099F097D
:1008B000681579058A059B0570F40E944503882315
:1008C00089F380E0FF90EF90DF90CF90BF90AF90E2
:1008D0009F908F90089581E0F5CFAF92BF92CF9215
:1008E000DF92EF92FF920F931F93CF93DF936C01F0
:1008F0007B018B01040F151FEB015E01AE18BF08D1
:10090000C017D10759F06991D601ED91FC91019082
:10091000F081E02DC6011995892B79F7C501DF918A
:10092000CF911F910F91FF90EF90DF90CF90BF90EC
:10093000AF900895FC01538D448D252F30E0842F16
:1009400090E0821B930B541710F0CF9608950197F7
:100950000895FC01918D828D981761F0A28DAE0FE4
:10096000BF2FB11D5D968C91928D9F5F9F73928F6B
:1009700090E008958FEF9FEF0895FC01918D828D97
:10098000981731F0828DE80FF11D858D90E0089564
:100990008FEF9FEF0895FC01918D228D892F90E0BC
:1009A000805C9F4F821B91098F739927089589E876
:1009B00093E00E94CB0421E0892B09F420E0822FF0
:1009C000089589ED92E00E94CB0421E0892B09F47F
:1009D00020E0822F0895FC01A48DA80FB92FB11D2E
:1009E000A35ABF4F2C91848D90E001968F73992765
:1009F000848FA689B7892C93A089B1898C91837043
:100A000080648C93938D848D981306C00288F3893B
:100A1000E02D80818F7D80830895EF92FF920F9368
:100A20001F93CF93DF93EC0181E0888F9B8D8C8D9A
:100A300098131AC0E889F989808185FF15C09FB78E
:100A4000F894EE89FF896083E889F9898081837051
:100A5000806480839FBF81E090E0DF91CF911F9100
:100A60000F91FF90EF900895F62E0B8D10E00F5F21
:100A70001F4F0F731127E02E8C8D8E110CC00FB6F7
:100A800007FCFACFE889F989808185FFF5CFCE018F
:100A90000E94EB04F1CFEB8DEC0FFD2FF11DE35A1B
:100AA000FF4FF0829FB7F8940B8FEA89FB89808112
:100AB0008062CFCFCF93DF93EC01FE01649121964A
:100AC000662329F089ED92E00E940D05F6CFDF91B3
:100AD000CF910895EF92FF920F931F93CF93DF93DF
:100AE0007C01C42F662321F08EE194E00E945A0518
:100AF000C7010E945A05CC2321F08BE194E00E94AB
:100B00005A050091260410912704E701FE01649123
:100B1000662359F0D801ED91FC910190F081E02D10
:100B2000C80119952196892B89F7DF91CF911F91E3
:100B30000F91FF90EF9008958F929F92AF92BF9286
:100B4000FF920F931F93CF93DF93FF24F3940AE157
:100B500012E08091260490912704DC01ED91FC9134
:100B60000084F185E02D1995181619060CF076C051
:100B70008091410490914204019609F06FC08091E8
:100B8000260490912704DC01ED91FC910284F38509
:100B9000E02D1995B82EC82F082E000CDD0B682FFC
:100BA00089ED92E00E940D05E0913D04F0913E0434
:100BB0008081882309F44DC0B8124BC0CF01019643
:100BC00090933E0480933D04818181110FC0F09287
:100BD000380485E094E00E945A0510934004009385
:100BE0003F0410933E0400933D04B3CF0E943204AF
:100BF0004B015C018091260490912704DC01ED916A
:100C0000FC910084F185E02D1995892B59F40E94FF
:100C10003204681979098A099B096A3071058105CE
:100C2000910540F38091260490912704DC01ED9119
:100C3000FC910084F185E02D1995892B09F089CF6D
:100C400080913D0490913E04019790933E048093DF
:100C50003D04D0934204C09341047BCFDF91CF91F8
:100C60001F910F91FF90BF90AF909F908F9008952C
:100C7000CF92DF92EF92FF920F931F93CF9391E069
:100C800098279093300420913204309133042F3F01
:100C90003207D1F0C82F61E0822F0E94AA03CC2333
:100CA000D9F08CE693E00E945A0561E0809132040D
:100CB0000E947C030E9432046093390470933A04CA
:100CC00080933B0490933C04CF911F910F91FF9030
:100CD000EF90DF90CF9008950E9432040091390484
:100CE00010913A0420913B0430913C04DC01CB018B
:100CF000801B910BA20BB30B803D27E09207A1054F
:100D0000B10570F400ED17E020E030E068017901F2
:100D1000C81AD90AEA0AFB0AC701B6010E940004F0
:100D200083E893E00E945A0560E080913204CF91FD
:100D30001F910F91FF90EF90DF90CF900C947C0368
:100D4000CF93DF93EC016991662329F089ED92E05E
:100D50000E940D05F8CFDF91CF910895CF93DF93D7
:100D6000EC01888D8823B9F0AA89BB89E889F989C3
:100D70008C9185FD03C0808186FD0DC00FB607FCF8
:100D8000F7CF8C9185FFF2CF808185FFEDCFCE012B
:100D90000E94EB04E9CFDF91CF91089580E090E0CD
:100DA000892B29F00E94E10481110E94000080E05B
:100DB00090E0892B49F080E090E0892B29F00E9497
:100DC000000081110E94000080E090E0892B49F032
:100DD00080E090E0892B29F00E94000081110E94A0
:100DE000000080E090E0892B29F00E94D704811157
:100DF0000C94000008952F923F924F925F926F9251
:100E00007F928F929F92AF92BF92CF92DF92EF929A
:100E1000FF920F931F93CF93DF9300D000D0CDB7F5
:100E2000DEB77C015B016A01190189EA93E00E9447
:100E30005A05C1010E94A00686EA93E00E945A0565
:100E4000E114F10431F0A50170E060E0C7010E94F7
:100E5000C21792E0C114D10409F090E080E09D83B4
:100E60008E8382EA93E00E945A050E9432042B018D
:100E70003C01912C812C10E000E00E9432049B0187
:100E8000AC01241935094609570929833A834B8354
:100E90005C83A0912A04B0912B0428EE33E00E94D9
:100EA000171529813A814B815C812617370748073E
:100EB000590708F0B7C00E9445038111B3C00E94D2
:100EC0009C0580913D0490913E0420913F04309117
:100ED0004004821B930B21E030E04091410450918B
:100EE00042044F3F5F4F11F430E020E0820F931F28
:100EF0001816190614F60E949C0540913D04509165
:100F00003E04E0913F04F0914004E417F50750F5EA
:100F10009F012F5F3F4F3093400420933F04808117
:100F20004217530751F4EAE1F2E0F0934004E093F2
:100F30003F04F0933E04E0933D04082E000C990B0F
:100F4000282FC114D10471F14D815E8141155105E5
:100F5000B9F04130510509F43FC082E090E09E8332
:100F60008D8320C080914104909142048F3F980767
:100F700039F32FEF3FEF3093420420934104DDCF4C
:100F8000F601E00FF11F808128131DC00F5F1F4F76
:100F9000F601E00FF11F91E080E03081311190E027
:100FA0009D838E83F101E80DF91D8081281331C0E6
:100FB0005FEF851A950AF101E80DF91D8081811115
:100FC0007ECF81E030C091E080E0F60130813213C5
:100FD00090E0092F182FE6CFE114F10419F38D30BA
:100FE00071F0F2E0AF16B1047CF0F7018083F1E01C
:100FF000AF1AB108A7014F5F5F4F7A01D3CFE2E08C
:10100000F0E0FE83ED83CECF42E050E05E834D837F
:10101000C9CF91E080E0F1013081321390E0892E58
:10102000982E4DCF80E026960FB6F894DEBF0FBE07
:10103000CDBFDF91CF911F910F91FF90EF90DF9087
:10104000CF90BF90AF909F908F907F906F905F9068
:101050004F903F902F900895FB0101900020E9F7F9
:101060003197AF01461B570BDC01ED91FC910280DB
:10107000F381E02D1994CF93DF93BC0189ED92E0C9
:101080000E942C08EC0164E972E089ED92E00E9474
:101090002C088C0F9D1FDF91CF910895CF93DF9384
:1010A000EC018EE993E00E945A05CE010E94A00651
:1010B0008BE993E00E945A05209749F0BE01809188
:1010C000260490912704DF91CF910C942C08DF9196
:1010D000CF9108950F931F93CF93DF93EC018881F5
:1010E0009981009759F02A813B812617370730F004
:1010F00081E0DF91CF911F910F9108958B016F5F78
:101100007F4F0E94CC16009759F0998388831B83E8
:101110000A832C813D81232B59F7FC011082E8CFF3
:1011200080E0E7CFCF93DF93EC018881998100972E
:1011300011F00E944316198218821D821C821B82A4
:101140001A82DF91CF9108950F931F93CF93DF936E
:10115000EC010C811D81095F1F4FB8010E946A08D4
:10116000882391F0288139818C819D8164E272E02D
:10117000820F931F0E94D4171D830C83CE01DF9131
:10118000CF911F910F910895CE010E949208F6CF42
:10119000EF92FF920F931F93CF93DF93EC0119828D
:1011A00018821B821A821D821C828617970719F1EA
:1011B000FB010081118101151105E9F0E480F58042
:1011C000B7010E946A08811109C0CE01DF91CF9159
:1011D0001F910F91FF90EF900C949208FD82EC828A
:1011E000B80188819981DF91CF911F910F91FF9074
:1011F000EF900C94D417DF91CF911F910F91FF9036
:10120000EF900895CF92DF92EF92FF920F931F938A
:10121000CF93DF93CDB7DEB7A1970FB6F894DEBFBB
:101220000FBECDBF7C01CB01BA01F7011182108244
:1012300013821282158214828E010F5F1F4F22E0EB
:1012400044E00E9461116C01009771F0FC01019073
:101250000020E9F731978F01081B190BB801C7016E
:101260000E946A08811112C0C7010E949208A196CB
:101270000FB6F894DEBF0FBECDBFDF91CF911F91A7
:101280000F91FF90EF90DF90CF900895F7011583B5
:101290000483B601808191810E94D417E8CFFC01BC
:1012A00080819181009711F00C94431608951F924C
:1012B0000F920FB60F9211242F933F938F939F930A
:1012C000AF93BF938091D1029091D202A091D302AB
:1012D000B091D4023091D00223E0230F2D3758F57E
:1012E0000196A11DB11D2093D0028093D10290934D
:1012F000D202A093D302B093D4028091D5029091F0
:10130000D602A091D702B091D8020196A11DB11DBD
:101310008093D5029093D602A093D702B093D802BF
:10132000BF91AF919F918F913F912F910F900FBEE1
:101330000F901F90189526E8230F0296A11DB11D4E
:10134000D2CF1F920F920FB60F9211240BB60F92AD
:101350002F933F934F935F936F937F938F939F93BD
:10136000AF93BF93EF93FF9389E893E00E94EB0460
:10137000FF91EF91BF91AF919F918F917F916F916D
:101380005F914F913F912F910F900BBE0F900FBE29
:101390000F901F9018951F920F920FB60F92112465
:1013A0000BB60F922F938F939F93EF93FF93E09140
:1013B0009903F0919A038081E0919F03F091A0033B
:1013C00082FD1DC090818091A2038F5F8F73209159
:1013D000A303821741F0E091A203F0E0E757FC4F2E
:1013E000958F8093A203FF91EF919F918F912F9101
:1013F0000F900BBE0F900FBE0F901F90189580811D
:10140000F2CF1F920F920FB60F9211240BB60F92CC
:101410002F933F934F935F936F937F938F939F93FC
:10142000AF93BF93EF93FF9389ED92E00E94EB049B
:10143000FF91EF91BF91AF919F918F917F916F91AC
:101440005F914F913F912F910F900BBE0F900FBE68
:101450000F901F9018951F920F920FB60F921124A4
:101460000BB60F922F938F939F93EF93FF93E0917F
:10147000E902F091EA028081E091EF02F091F0023E
:1014800082FD1DC090818091F2028F5F8F73209149
:10149000F302821741F0E091F202F0E0E752FD4FD3
:1014A000958F8093F202FF91EF919F918F912F91F1
:1014B0000F900BBE0F900FBE0F901F90189580815C
:1014C000F2CF10928C0310928B0348EE53E060E051
:1014D00070E040938D0350938E0360938F0370935D
:1014E00090038CE092E090938A038093890325E334
:1014F00031E0309396032093950324E331E0309359
:1015000098032093970320E331E030939A032093CC
:10151000990321E331E030939C0320939B0322E362
:1015200031E030939E0320939D0326E331E0309316
:10153000A00320939F031092A2031092A303109282
:10154000A4031092A5031092DC021092DB024093D8
:10155000DD025093DE026093DF027093E00290930D
:10156000DA028093D90285EC90E09093E6028093B2
:10157000E50284EC90E09093E8028093E70280EC2F
:1015800090E09093EA028093E90281EC90E09093DE
:10159000EC028093EB0282EC90E09093EE02809359
:1015A000ED0286EC90E09093F0028093EF021092AF
:1015B000F2021092F3021092F4021092F50289E8FE
:1015C00093E090932704809326048EE190E090931B
:1015D0002904809328048AE090E090932B04809360
:1015E0002A048CE291E090932D0480932C048FEFD9
:1015F0009FEF90932F0480932E0421E020933004DA
:101600001092310446E050E050933304409332048A
:101610009093350480933404209336041092370459
:10162000109238041092390410923A0410923B043C
:1016300010923C042AE132E030933E0420933D04B2
:101640003093400420933F049093420480934104DC
:1016500061E086E00E94AA038091340490913504F1
:101660008F3F980719F060E00E94AA0386E18093FB
:10167000810310928203E8E9F4E0E491E0938303AC
:10168000E2E5F4E0E491E093840380E89EE3A0E0E7
:10169000B0E08093850390938603A0938703B09373
:1016A00088031092760360E086E10E94AA0361E05D
:1016B000809181030C947C03CF93DF93CDB7DEB789
:1016C000C256D1400FB6F894DEBF0FBECDBF78949E
:1016D00084B5826084BD84B5816084BD85B5826037
:1016E00085BD85B5816085BD80916E0081608093E8
:1016F0006E00109281008091810082608093810051
:101700008091810081608093810080918000816060
:10171000809380008091B10084608093B1008091BB
:10172000B00081608093B0008091910082608093CE
:101730009100809191008160809391008091900050
:101740008160809390008091A10082608093A100CD
:101750008091A10081608093A1008091A0008160B0
:101760008093A0008091210182608093210180916B
:10177000210181608093210180912001816080930B
:10178000200180917A00846080937A0080917A00B1
:10179000826080937A0080917A00816080937A00E1
:1017A00080917A00806880937A001092C10082E173
:1017B00090E09A83898383E090E09C838B8387E029
:1017C00090E09E838D8388E090E098878F8389E006
:1017D00090E09A8789878AE090E09C878B878BE0EE
:1017E00090E09E878D878DE090E0988B8F8781E0D9
:1017F00090E09A8B898B8E010F5F1F4FF02EE12EA8
:101800006E0123E1C20ED11C61E0D8018C910E94CF
:10181000AA030E5F1F4F0C151D05B1F760E084E0B1
:101820000E94AA0360E082E00E94AA0360E083E1D4
:101830000E94AA03E091E902F091EA0222E02083EB
:10184000E091E502F091E6021082E091E702F0916A
:10185000E80280E180831092F102E091ED02F091C4
:10186000EE0296E09083E091EB02F091EC02808131
:1018700080618083E091EB02F091EC0280818860CE
:101880008083E091EB02F091EC028081806880839C
:10189000E091EB02F091EC0280818F7D8083E091FA
:1018A0009903F0919A032083E0919503F0919603B8
:1018B0001082E0919703F091980387E6808310925D
:1018C000A103E0919D03F0919E039083E0919B031F
:1018D000F0919C03808180618083E0919B03F09173
:1018E0009C03808188608083E0919B03F0919C033E
:1018F000808180688083E0919B03F0919C038081CC
:101900008F7D808361E086E00E947C038EE190E021
:1019100090932B0480932A048CE291E090932D0401
:1019200080932C048E010F5B1E4F64EF71E080E00A
:1019300090E00E9400048091CE029091CF02019627
:10194000843091050CF040C09093CF028093CE027A
:10195000BBE92B2E312C83E2882E912C8091C6027C
:1019600081110DC00E9432046093C2027093C302C1
:101970008093C4029093C502F1E0F093C6020E94E6
:1019800032044090C2025090C3026090C402709032
:10199000C502641575058605970569F08091760383
:1019A000823009F4A3C008F063C0882309F47DC025
:1019B000813009F47EC061E087E10E947C0360E031
:1019C0008AE10E947C03CACF1092CF021092CE020D
:1019D0008CE292E00E943B0860E081E00E947C0380
:1019E00060E08DE00E947C0396E0C92ED12C85E357
:1019F00092E00E943B0861E08DE00E947C036AEF68
:101A000070E080E090E00E94000460E08DE00E94C1
:101A10007C036AEF70E080E090E00E940004B1E097
:101A2000CB1AD10821F761E08DE00E947C0364E6C7
:101A300070E080E090E00E94000480913104811108
:101A40000CC08091320490913304019631F0809162
:101A5000300410923104882339F06EED72E289E08F
:101A600090E00E94000474CF80E00E943806F5CF19
:101A7000833009F467C0843009F09DCF0E9432049E
:101A800020917703309178034091790350917A0344
:101A9000621B730B840B950B613D774081059105AB
:101AA00008F489CF1092760386CF21E02093760345
:101AB00082CF61E0809181030E947C0310927F03BA
:101AC00010927E0310927D0310927C0310927B0390
:101AD0000E943204609377037093780380937903B4
:101AE00090937A0332E03093760365CF0E943204FC
:101AF00040907703509078036090790370907A0358
:101B000064197509860997096B3F7105810591056F
:101B100008F451CF61E0809181030E94AA0360E044
:101B2000809181030E947C030E94320460937703BA
:101B3000709378038093790390937A0343E0409302
:101B4000760339CF0E943204409077035090780397
:101B50006090790370907A03641975098609970972
:101B6000653171058105910508F425CF0E94320485
:101B700060937703709378038093790390937A034B
:101B800054E050937603F89461E0809181030E94C1
:101B90007C03C1010197F1F760E0809181030E940D
:101BA000AA03C4010197F1F780E00E949802672B15
:101BB000682B692B09F48FC081E00E949802672B83
:101BC000682B692B09F487C0AF2CBE2CCF2CDE2CE0
:101BD00080E00E949802D6016D937D938D939C9333
:101BE000139781E00E949802F601648375838683CF
:101BF0009783F8E0CF0ED11C0C151D0549F778949A
:101C000090E080E0D5014D905D906D907C901397B1
:101C100014964D915D916D917C91179741145104EB
:101C20006104710409F4C7CE4115510561057105C0
:101C300009F4C1CEFC01A3E0F595E795AA95E1F77B
:101C4000EA58FC4F2581220F258344165506660667
:101C5000770610F4216025830196B8E0AB0EB11C25
:101C60008832910579F640917D03642F70E0809170
:101C70007E0390E050917F0320917B0330917C03A1
:101C8000230F3327331F260F371F280F391F332702
:101C90005217130609F08FCE209182032223E9F018
:101CA000233008F086C0762F662766277F77682B5B
:101CB000792B47FF03C0719561957109072E000CC0
:101CC000880B990B0E94671420E030E040E251E459
:101CD0000E94351508C078946ECE072E000C880B34
:101CE000990B0E9467142B013C010E9432046093FF
:101CF000C2027093C3028093C4029093C50261E054
:101D00008AE10E947C0360E087E10E947C03B301CA
:101D1000A201C8010E940209B8018F2D9E2D0E94C8
:101D2000C8088F2D9E2D0E94A408DC0114964D91A9
:101D30005C9115976D917C9189ED92E00E946D0404
:101D400064E972E089ED92E00E942C088F2D9E2DAF
:101D50000E944F09C8010E944F09809130048111EF
:101D60002FC061E081E00E947C0360E08DE00E9472
:101D70007C038091310481110BC0BB24B394B092D9
:101D8000310480913004882309F485C01092310415
:101D900087E692E00E943B0861E08BE00E947C03B2
:101DA00060E08AE00E947C0368E873E180E090E0F4
:101DB00041C0412C512C20EC622E2FE7722E95CF82
:101DC00080913104811126C081E0809331048BE53C
:101DD00092E00E945A05809130048823B1F081E09E
:101DE0000E9438060E9432044B015C010E943204BA
:101DF000681979098A099B09643F71408105910539
:101E0000E0F40E944503882389F31092310480E0B6
:101E10000E94380661E08DE00E947C0360E081E072
:101E20000E947C0380E492E00E943B0860E777E137
:101E300080E090E00E94000478CD0E9432044B01C3
:101E40005C010E943204681979098A099B090E9481
:101E5000651420E030E048EC52E40E94601487FFF3
:101E60002BC241E061E087E592E00E946A0522E929
:101E700032E050E040E070E060E090E080E00E94FE
:101E8000FB06D82E0E9445038111BFCFDD20C9F289
:101E90001092310466CF41E061E083E792E00E9456
:101EA0006A0522E932E041E652E062E070E08F2DFF
:101EB0009E2D0E94FB06811103C00E94450366CF40
:101EC0008981082E000C990BC0970A9708F05ECF05
:101ED0008F2D9E2D0E947F1190930102809300020E
:101EE0001092310402970CF453CF61E08AE00E9413
:101EF0007C0360E08BE00E947C0360E087E00E944E
:101F00007C0360E089E00E947C0361E088E00E943D
:101F10007C03B301A201C8010E940209B8018F2D00
:101F20009E2D0E94C8088F2D9E2D0E94A408BC01E2
:101F3000CE01835B9E4F0E94C8088F2D9E2D0E946C
:101F40004F09C8010E944F09C35BDE4FC880D9808A
:101F5000CD54D140809131048111ECC0B092310454
:101F600082E293E00E945A05809130048111E0C022
:101F7000C114D10409F0B5C041E061E087E193E00C
:101F80000E946A0522E932E050E040E070E060E043
:101F900090E080E00E94FB06882309F4C7C00E94FD
:101FA00032042B013C011E013BEA231A3EEF330AA7
:101FB000AE014F5F5F4F5A010E9432049B01AC019A
:101FC0002419350946095709C15ADE4F2883398338
:101FD0004A835B83CF55D140A0912C04B0912D044E
:101FE00028EE33E00E941715C15ADE4F288139814F
:101FF0004A815B81CF55D1402617370748075907DB
:1020000008F055C1809136048823D9F041E061E0A1
:102010008BE792E00E946A0522E932E047E952E04C
:1020200068E170E0C5010E94FB06882309F47EC0C8
:102030008981082E000C990B0E94AD17892B09F499
:102040002FC1C35ADE4F19821882CD55D140C55ACF
:10205000DE4F19821882CB55D140C75ADE4F198204
:102060001882C955D140C95ADE4F19821882C75506
:10207000D140D1011D921C92CD5ADE4F1982188297
:10208000C355D14041E061E085E892E00E946A05D5
:1020900022E932E040EA52E060E270E0C5010E94CD
:1020A000FB0681116DC00E9445038111F5C093E0CC
:1020B000C92ED12C10923104CD28E1F560E088E0E2
:1020C0000E947C0361E087E00E947C0360E089E07D
:1020D0000E947C0364E670E080E090E00E940004CF
:1020E000F9CF6DE070E0C6010E94C917009711F0AA
:1020F000FC011082F60101900020E9F73197EC19FC
:10210000FD09E535F140A0F441E061E08DE093E0A8
:102110000E946A0523E832E050E040E070E060E0B1
:1021200090E080E00E94FB06811120C00E944503E0
:10213000109231048CEA92E00E943B0860E088E053
:102140000E947C0361E089E00E947C0360E087E0FC
:102150000E947C0364EF71E080E090E00E94000444
:10216000CE01835B9E4F0E944F09DFCBC6010E94C8
:102170004E088BE892E00E944E082DE832E004CF32
:102180002DE531E02C0F3D1FF801318320834BE515
:1021900051E04C0F5D1F5383428389E591E08C0F22
:1021A0009D1F95838483A7E5B1E0AC0FBD1FB78366
:1021B000A6833186208623E531E02C0F3D1F33872F
:1021C00022874801D12CC12CC50169EA72E00E9426
:1021D000C411009709F46BCF0E949D11D401ED91B9
:1021E000FD914D0171836083BFEFCB1ADB0A80E064
:1021F00090E0E6E0CE16D10441F78DEF92E00E9428
:102200005A05C35ADE4F88809980CD55D1409F92A0
:102210008F922FEB32E03F932F93BF92AF920E94A9
:10222000DB17C5010E94A0068AEF92E00E945A05C2
:102230000F900F900F900F900F900F9055E0851614
:10224000910488F489EE92E00E945A05CD5ADE4F3F
:1022500088819981C355D14090932F0480932E0497
:10226000D12CC12C27CFC4018D7F0C9721F0F0E138
:102270008F16910429F48AED92E00E945A051ACF34
:102280008DEB92E00E945A058091280490912904D8
:102290000E943E04811190CE84E0C82ED12C0ACF3A
:1022A00080EA92E00E945A058AE090E0F1CF8FE840
:1022B00092E00E945A053CCF82E492E00E945A05C7
:1022C000A4CDEF920F931F93CF93DF93E80134E0F7
:1022D00047FD34E1042E000C550B57FF03C0519508
:1022E00041955109E32E022F242FAE010E940C12BA
:1022F000CE01DF91CF911F910F91EF900895FC01D6
:1023000088279927E89421912032E9F3293010F0A9
:102310002E30C8F32B3241F02D3239F4689404C0CA
:102320000E940412820F911D219120532A30C0F384
:102330001EF4909581959F4F08951F93FC01992756
:102340008827BC01E89411911032E9F3193010F09C
:102350001E30C8F31B3251F01D3249F4689406C098
:102360000E94EF11610F711D811D911D119110537C
:102370001A30B0F33EF490958095709561957F4F3B
:102380008F4F9F4F1F91089543E454E00C94C81160
:10239000FA01A191B081009719F41097E1F0CD01F5
:1023A000DC01CD010D90002011F4C00113C0FB0130
:1023B0002191222319F02015D9F7F3CFFB012191A8
:1023C000201519F41E92119606C02223C1F70D9014
:1023D0000020A1F7D001FA01A193B0830895592FED
:1023E000482F372F262F660F771F881F991F660FDC
:1023F000771F881F991F620F731F841F951F660F19
:10240000771F881F991F08957AE0979F902D879FC7
:10241000802D910D112408958F929F92AF92BF92BB
:10242000CF92DF92EF92FF920F931F93CF93DF93A0
:1024300000D000D000D0CDB7DEB76A01F22EB02EAA
:10244000102FFBE3AF2EA01608F41BE31F5F012F34
:1024500027E0AE014F5F5F4F0E948513BC01898169
:10246000982F9970913009F44EC09BE2E1FC04C0B2
:102470009E2D9170E0FC49C05E2D5071E82FE870F0
:1024800083FF55C084E0911101C083E0EF2DE81B6C
:102490008F1508F0E0E0D6018E2F20E25523C9F118
:1024A000992329F0D6019C93C60101966C019601EF
:1024B0002D5F3F4FE2FE33C08EE4D6018C9391E452
:1024C00011969C93119712968C93D9018E2F90E2BE
:1024D00081112AC0E20FF32FF11D10828EEF9FEFC2
:1024E00029960FB6F894DEBF0FBECDBFDF91CF9116
:1024F0001F910F91FF90EF90DF90CF90BF90AF9022
:102500009F908F9008959DE2B7CF90E2B5CF2D9325
:1025100081508111FCCFCE0ED11CE0E0C1CF8EE600
:10252000D6018C9391E6CCCF9D938150D1CF482F8B
:10253000447082FF3DC084E0911101C083E08F159B
:1025400010F4EF2DE81BD6018E2F20E2552309F160
:10255000992329F0D6019C93C60101966C0196013E
:102560002D5F3F4FE2FE1BC089E4D6018C938EE4C1
:1025700011968C93119786E412968C93D9018E2F25
:1025800090E2882309F4A6CF9D938150FACF2D9332
:1025900081508111FCCFCE0ED11CE0E0D9CF89E66D
:1025A000D6018C938EE611968C93119786E6E4CF34
:1025B0009B0177FF02C030E020E0A1E0B0E0911184
:1025C00002C0B0E0A0E0F9013196AE0FBF1F8B2C26
:1025D000912CBB2009F461C05401EFEFAE1ABE0A82
:1025E000AA0DBB1DFA161B0619F014F04F2D4A1B3D
:1025F000511188C0E3FC59C07601A42FB0E2A111AB
:102600004FC0C40ED11C992309F45BC040E0D60131
:102610001196F60190836D01552309F448C0012FEE
:10262000060F9A81582F507184FF03C0913309F42B
:10263000015010160CF047C0093008F008E0EEE237
:10264000FE2E5B01A01AB108850191948194910836
:102650002F3F320729F4D601FC92F60131966F0123
:102660006217730794F1021713077CF5DB01A21BB5
:10267000B30BAA24A394B12CAC0EBD1EAA0DBB1D96
:1026800011968C9121503109D601119628153905E2
:10269000F4F0F60180836D01DBCFB12CA12CA0CF2B
:1026A000F701B1937F01A150AACF9111B0CFD6010C
:1026B000942F50E302C05D9391509111FCCFC40E52
:1026C000D11C40E0ACCF01E0BACF80E3DBCF621792
:1026D000730731F4963388F4953311F4552369F078
:1026E000F6018083FD01842F90E2811108C0A40FC0
:1026F000B11D1C9290E080E0F3CE81E3F1CF919385
:102700008150F3CF911183CF8ACF283008F027E092
:102710003327DA01990F311D87FD9160009661051D
:10272000710539F432602E5F3D9330E32A95E1F76D
:1027300008959F3F30F080387105610509F03C5FD6
:102740003C5F3D93913008F08068911DDF93CF93FB
:102750001F930F93FF92EF92192F987F9695E92F71
:1027600096959695E90FFF27EE55FE4F992733274B
:10277000EE24FF24A701E70105900894079428F4AC
:10278000360FE71EF81E491F511D660F771F881F61
:10279000991F0694A1F70590079428F4E70EF81EF8
:1027A000491F561FC11D770F881F991F661F06946A
:1027B000A1F70590079428F4F80E491F561FC71F6C
:1027C000D11D880F991F661F771F0694A1F70590EA
:1027D000079420F4490F561FC71FD81F990F661F73
:1027E000771F881F0694A9F784911095177041F000
:1027F000D695C79557954795F794E7941A95C1F7DD
:10280000E8E4F1E068941590159135916591959102
:1028100005907FE27395E118F10A430B560BC90B43
:10282000D009C0F7E10CF11E431F561FC91FD01D70
:102830007EF4703311F48A95E6CFE894015030F0BD
:10284000080F0AF40027021708F4202F2395022FFF
:102850007A3328F079E37D932A95E9F710C07D93C8
:102860002A9589F606949795679537951795179445
:10287000E118F10A430B560BC90BD00998F02395C8
:102880007E9173957A3308F070E37C932013B8F748
:102890007E9170617D9330F0839571E37D9370E359
:1028A0002A95E1F71124EF90FF900F911F91CF919E
:1028B000DF91992787FD9095089599278827089596
:1028C0000E94A21408F481E00895E89409C097FBDF
:1028D0003EF490958095709561957F4F8F4F9F4FF7
:1028E0009923A9F0F92F96E9BB279395F69587953B
:1028F00077956795B795F111F8CFFAF4BB0F11F4FE
:1029000060FF1BC06F5F7F4F8F4F9F4F16C08823A4
:1029100011F096E911C0772321F09EE8872F762FDA
:1029200005C0662371F096E8862F70E060E02AF01B
:102930009A95660F771F881FDAF7880F9695879507
:1029400097F90895990F0008550FAA0BE0E8FEEFDC
:1029500016161706E807F907C0F012161306E40763
:10296000F50798F0621B730B840B950B39F40A265C
:1029700061F0232B242B252B21F408950A2609F43A
:10298000A140A6958FEF811D811D089597F99F673E
:1029900080E870E060E008959FEF80EC08950024E7
:1029A0000A941616170618060906089500240A94B4
:1029B00012161306140605060895092E0394000C3A
:1029C00011F4882352F0BB0F40F4BF2B11F460FFC9
:1029D00004C06F5F7F4F8F4F9F4F089557FD9058F2
:1029E000440F551F59F05F3F71F04795880F97FBD3
:1029F000991F61F09F3F79F087950895121613068D
:102A00001406551FF2CF4695F1DF08C016161706BB
:102A10001806991FF1CF86957105610508940895F0
:102A2000E894BB2766277727CB0197F908950E9482
:102A30001E15B7FF0895821B930B0895A29FB00146
:102A4000B39FC001A39F700D811D1124911DB29FE2
:102A5000700D811D1124911D0895EE0FFF1F881F19
:102A60008BBF0790F691E02D19940E9449150C94A4
:102A7000DD140E94D61458F00E94CF1440F029F4BF
:102A80005F3F29F00C94C61451110C9411150C944D
:102A9000CC140E94EE1468F39923B1F3552391F3FB
:102AA000951B550BBB27AA2762177307840738F0BD
:102AB0009F5F5F4F220F331F441FAA1FA9F335D01A
:102AC0000E2E3AF0E0E832D091505040E695001CCE
:102AD000CAF72BD0FE2F29D0660F771F881FBB1F88
:102AE000261737074807AB07B0E809F0BB0B802D66
:102AF000BF01FF2793585F4F3AF09E3F510578F092
:102B00000C94C6140C9411155F3FE4F3983ED4F373
:102B1000869577956795B795F7959F5FC9F7880F65
:102B2000911D9695879597F90895E1E0660F771FB7
:102B3000881FBB1F621773078407BA0720F0621B48
:102B4000730B840BBA0BEE1F88F7E09508950F9373
:102B50001F93CF93DF938230910510F482E090E0D1
:102B6000E0914704F091480430E020E0B0E0A0E0BC
:102B7000309799F42115310509F44AC0281B390B07
:102B800024303105D8F58A819B816115710589F161
:102B9000FB0193838283FE0111C040815181028138
:102BA000138148175907E0F04817590799F410970F
:102BB00061F012960C93129713961C933296CF01E4
:102BC000DF91CF911F910F910895009347041093C7
:102BD0004804F4CF2115310551F04217530738F05E
:102BE000A901DB019A01BD01DF01F801C1CFEF01AD
:102BF000F9CF9093480480934704CDCFFE01E20FB4
:102C0000F31F819391932250310939832883D7CFC1
:102C10002091450430914604232B41F42091040275
:102C2000309105023093460420934504209102021E
:102C3000309103022115310541F42DB73EB7409183
:102C4000060250910702241B350BE0914504F091D8
:102C50004604E217F307A0F42E1B3F0B2817390791
:102C600078F0AC014E5F5F4F2417350748F04E0FE8
:102C70005F1F5093460440934504819391939FCFE7
:102C8000F0E0E0E09CCFCF93DF930097E9F0FC0108
:102C9000329713821282A0914704B0914804ED014B
:102CA00030E020E01097A1F420813181820F931F42
:102CB00020914504309146042817390709F061C076
:102CC000F0934604E0934504DF91CF910895EA0123
:102CD000CE17DF07E8F54A815B819E01411551055A
:102CE000B1F7E901FB83EA8349915991C40FD51FDC
:102CF000EC17FD0761F4808191810296840F951F86
:102D0000E90199838883828193819B838A83F0E0A0
:102D1000E0E012968D919C9113970097B9F52D9153
:102D20003C911197CD010296820F931F209145048B
:102D3000309146042817390739F6309751F510922B
:102D4000480410924704B0934604A0934504BCCFB6
:102D5000D383C28340815181840F951FC817D9073F
:102D600061F44E5F5F4F88819981480F591F5183ED
:102D700040838A819B81938382832115310509F0E9
:102D8000B0CFF0934804E09347049ECFFD01DC01EF
:102D9000C0CF13821282D7CF4F925F926F927F92F1
:102DA0008F929F92AF92BF92CF92DF92EF92FF925B
:102DB0000F931F93CF93DF938C01009799F4CB016E
:102DC000DF91CF911F910F91FF90EF90DF90CF9007
:102DD000BF90AF909F908F907F906F905F904F903B
:102DE0000C94A715FC01E60FF71F9C012250310936
:102DF000E217F30708F4AEC0D901CD91DC91119729
:102E0000C617D70720F1C530D10578F0CE01049759
:102E10008617970750F0C61BD70B2297C193D19303
:102E20006D937C93CF010E944316C801DF91CF912F
:102E30001F910F91FF90EF90DF90CF90BF90AF90D8
:102E40009F908F907F906F905F904F9008955B015F
:102E5000AC1ABD0A4C018C0E9D1EA0914704B09186
:102E60004804512C412CF12CE12C109731F5809124
:102E70004504909146048815990509F05CC04616F2
:102E8000570608F058C08091020290910302009703
:102E900041F48DB79EB74091060250910702841B02
:102EA000950BE817F90708F055C0F0934604E09336
:102EB0004504F90171836083B8CF8D919C9111977E
:102EC00012966C90129713967C901397A815B905DB
:102ED00059F56C0142E0C40ED11CCA14DB0420F188
:102EE000AC014A195B09DA011296159780F06282EB
:102EF000738251834083D9016D937C93E114F10473
:102F000071F0D7011396FC93EE9312978ECF229611
:102F10008C0F9D1FF90191838083F301EFCFF09314
:102F20004804E093470481CF4816590608F42C0161
:102F30007D01D3019ACFCB010E94A7157C01009798
:102F400049F0AE01B8010E94B917C8010E944316AA
:102F500087016BCF10E000E068CF91110C945D14F5
:102F600080538A5028F0865C806281568650B0F784
:102F70000895FB01DC0102C001900D9241505040C8
:102F8000D8F70895DC0101C06D9341505040E0F73F
:102F90000895FC018191861721F08823D9F799279C
:102FA00008953197CF010895FB01DC0101900D9246
:102FB0000020E1F708950F931F93CF93DF93CDB7D0
:102FC000DEB72E970FB6F894DEBF0FBECDBF0E89C9
:102FD0001F8986E08C831A8309838FEF9FE79E8386
:102FE0008D83AE01465E5F4F688D798DCE0101966F
:102FF0000E940B182F813885020F131FF8011082D1
:103000002E960FB6F894DEBF0FBECDBFDF91CF91E5
:103010001F910F9108952F923F924F925F926F925E
:103020007F928F929F92AF92BF92CF92DF92EF9258
:10303000FF920F931F93CF93DF9300D000D000D067
:103040001F921F92CDB7DEB77C013B018A01FC01C4
:1030500017821682838181FFDDC1CE0101965C015A
:10306000F7019381F30193FD859193FF81913F01D6
:10307000882309F453C1853239F493FD859193FF78
:1030800081913F01853229F4B70190E00E94231A13
:10309000E7CF912C212C312CFFE1F31538F08B3246
:1030A00011F190F4803209F1833229F137FC3CC0F0
:1030B00020ED280F2A3050F536FE20C08AE0989E79
:1030C000200D1124922E06C08D3291F0803371F7BD
:1030D000689430F8F30193FD859193FF81913F014E
:1030E0008111DACF21C0689431F8689432F8F2CFB8
:1030F000689433F8EFCF689434F8ECCFEAE02E9E72
:10310000200D1124222E689435F8E4CF8E3229F454
:1031100036FC04C1689436F8DDCF8C3619F4689417
:1031200037F8D8CF8836B1F2982F9F7D95549330D9
:10313000E0F08336A1F18337C1F1833509F063C034
:103140002801F2E04F0E511CF801C080D180692D9A
:1031500070E036FC02C06FEF7FEFC6010E940D1ACF
:103160004C01689437F882010AC00C5F1F4FFFE3DF
:10317000F98388248394912C6501E89437F833FE11
:103180002DC0522C8114910471F5552009F468CF9B
:10319000B70180E290E00E94231A5A94F6CFF8011A
:1031A000808189830E5F1F4FE4CF2801F2E04F0E2C
:1031B000511CF801C080D180692D70E036FC02C03E
:1031C0006FEF7FEFC6010E94181A4C018201D5CF24
:1031D000B70180E290E00E94231A2A94281419046F
:1031E00009F0B0F7CECFF60137FC859137FE81911B
:1031F0006F01B70190E00E94231A51105A94F1E038
:103200008F1A9108BFCF843619F0893609F077C03C
:10321000F80137FE6BC060817181828193810C5F00
:103220001F4FF32DFF763F2E97FF09C09095809595
:10323000709561957F4F8F4F9F4F689437F82AE0C4
:1032400030E0A5010E94531AC82ECA188C2C432CBA
:1032500036FE0CC0E89440F8C91440F434FE05C0B2
:1032600032FC03C0F32DFE7E4F2E892C44FEAAC0F3
:10327000FE01EC0DF11D8081803309F09CC0242DEE
:10328000297E422E842D8870582E43FCAAC040FE11
:10329000A4C09C2C821418F42C0C922C981844FE78
:1032A000A6C0B70180E390E00E94231A42FE09C045
:1032B00088E790E041FE02C088E590E0B7010E94F7
:1032C000231AC91408F49FC0CA94D12C9FEFC91ABD
:1032D000D90ACA0CDB1CF60182916F01B70190E09C
:1032E0000E94231AAC14BD04B1F74FCF60817181E5
:1032F000072E000C880B990B0E5F1F4F92CFD32C1B
:10330000E894D4F82AE030E08537E1F1232D297FD5
:10331000D22E8F36A9F1F0F4883551F1F70186816C
:1033200097812B960FB6F894DEBF0FBECDBFDF910D
:10333000CF911F910F91FF90EF90DF90CF90BF90B2
:10334000AF909F908F907F906F905F904F903F9045
:103350002F900895803749F0883701F7D4FE02C0D6
:103360006894D2F820E130E00DC06894D4F8F6CF2C
:1033700034FE03C0822F8660D82E20E132E002C0E6
:1033800028E030E0F801D7FE0FC0608171818281B2
:1033900093810C5F1F4FA5010E94531AC82ECA18B3
:1033A0003D2CE89437F852CF6081718190E080E045
:1033B0000E5F1F4FF0CF42FC02C0839463CF839413
:1033C000839460CF842D867809F45CCFF6CFB70163
:1033D00080E290E00E94231A83948214C0F3512C5F
:1033E0005ECF522C5818821408F459CFF8CF842D90
:1033F000867809F466CF8BE241FE80E247FC8DE2DD
:10340000B70190E05CCFB70180E390E00E94231AFF
:103410009A9457CF8FEF9FEF84CFFC0105906150B6
:1034200070400110D8F7809590958E0F9F1F0895DA
:10343000FC016150704001900110D8F78095909583
:103440008E0F9F1F08950F931F93CF93DF93182F15
:10345000092FEB018B8181FD09C01FEF0FEF812F39
:10346000902FDF91CF911F910F91089582FF14C08B
:103470002E813F818C819D81281739073CF4E8819A
:10348000F981CF0101969983888310838E819F8172
:1034900001969F838E83E3CFE885F985812F199567
:1034A000892BA1F3DACFFA01AA27283051F1203174
:1034B00081F1E8946F936E7F6E5F7F4F8F4F9F4FC8
:1034C000AF4FB1E03ED0B4E03CD0670F781F891F0A
:1034D0009A1FA11D680F791F8A1F911DA11D6A0FD8
:1034E000711D811D911DA11D20D009F468943F918B
:1034F0002AE0269F11243019305D3193DEF6CF018A
:103500000895462F4770405D4193B3E00FD0C9F74F
:10351000F6CF462F4F70405D4A3318F0495D31FDBC
:103520004052419302D0A9F7EACFB4E0A69597950F
:10353000879577956795BA95C9F7009761057105E5
:1035400008959B01AC010A2E06945795479537952F
:103550002795BA95C9F7620F731F841F951FA01D89
:063560000895F894FFCF6E
:10356600FFFF000049048000000000000D056D0407
:103576009A04AE06CB04A904BD0453424452494EF4
:10358600470D0A00206465672E204300536C65656D
:1035960070696E67004C554B453130352D474F00ED
:1035A600436F756C646E277420626567696E206D63
:1035B6006F64656D206F7065726174696F6E732ECE
:1035C600002B4353513A005369676E616C51756124
:1035D6006C697479206661696C65643A20657272FB
:1035E6006F720052454144590D0A000D00300D0A14
:1035F6000D0A4F4B0D0A002D4D5353544D3A2000E2
:103606002B53424449583A20002C200053656E64DF
:10361600206661696C65643A206572726F72002576
:0236260075002D
:00000001FF
